:100000000C9483010C94F6150C94CF150C942816BF
:100010000C9428160C9428160C94AB010C94AB018C
:100020000C94AB010C94AB010C94AB010C94AB01A0
:100030000C94AB010C94AB010C94AB010C94AB0190
:100040000C9485150C94AB010C94AB010C94AB0192
:100050000C94AB010C94AB010C94AB010C94AB0170
:100060000C94AB010C94AB012C22494E49544941EC
:100070004C22002C22434C4F53494E4722002C2245
:10008000434C4F53454422002C22434F4E4E454390
:1000900054454422002B4349505354415455533D39
:1000A000002B43495052584745543A002B4349507E
:1000B00052584745543D342C00434C4F5345440D52
:1000C0000A000D0A2B43495052584745543A004EF6
:1000D0004F5420494E5345525445440053494D20F6
:1000E00050554B0053494D2050494E005245414414
:1000F00059000D0A2B4350494E3A002B4350494EAC
:100100003F0045300026465A000049000D0A2B43A7
:100110005245473A002B435245473F002B43444E3C
:10012000534346473D22382E382E382E38222C2273
:10013000382E382E342E3422002B43494653523B5E
:100140004530002B43474154543D30002B43495028
:1001500053485554002B4349494352002200222C56
:100160002200222C22002B435354543D22002B43C7
:10017000495052584745543D31002B434950515343
:10018000454E443D31002B4349504D55583D3100BB
:100190002B43474154543D31002B53415042523D73
:1001A000322C31002B53415042523D312C31002B27
:1001B00043474143543D312C31002B434744434F87
:1001C0004E543D312C224950222C22002B534150B9
:1001D00042523D332C312C2241504E222C220045DC
:1001E00052524F520D0A004F4B0D0A002B534150F3
:1001F00042523D332C312C22436F6E74797065224C
:100200002C224750525322000000000024002700F7
:100210002A0000000008000201000003040700009B
:1002200000000000000000000000250028002B0056
:100230000000000023002600290004040404040434
:100240000404020202020202030303030303010285
:100250000408102040800102040810200102040854
:100260001020434C4F5345204F4B0D0A004552522E
:100270004F520D0A00414C524541445920434F4EC4
:100280004E4543540D0A00434F4E4E4543542046BD
:1002900041494C0D0A00434F4E4E454354204F4BAD
:1002A0000D0A00222C00222C220022544350002B45
:1002B00043495053544152543D002B4349505353EA
:1002C0004C3D002B434950434C4F53453D000D0AD4
:1002D00044415441204143434550543A003E002B91
:1002E00043495053454E443D002B434950525847D3
:1002F00045543A002B43495052584745543D322CFF
:10030000000011213A2211241FBECFEFD8E0DEBF3A
:10031000CDBF24E0A8EDB1E001C01D92AE37B20719
:10032000E1F711E0A0E0B1E0EEEDFFE402C00590DE
:100330000D92A83DB107D9F711E0C2E8D1E004C0A1
:100340002197FE010E949025C138D107C9F70E946C
:100350008A1B0C94E2270C940000DC01ED91FC91C7
:100360000688F789E02D099591E0811101C090E0A0
:10037000892F0895CF93DF93EC01E881F981008400
:10038000F185E02D0995892B11F48D8901C081E05B
:10039000DF91CF910895DC011C96ED91FC911D97A2
:1003A00082819381DC01ED91FC910680F781E02D43
:1003B00009941F93CF93DF93CDB7DEB72F970FB676
:1003C000F894DEBF0FBECDBF8CE20E949009182FBB
:1003D00060E08CE20E94E50910FF4CC060E0CE01B5
:1003E00001960E94950C49815A816B817C813D81E7
:1003F0002E818F81E091FD039FE09E9FF0011124EB
:10040000EA5FFC4F4683578360877187E091FD0365
:100410009E9FF0011124EA5FFC4F3287E091FD03BB
:100420009E9FF0011124EA5FFC4F2387E091FD03BA
:100430009E9FF0011124EA5FFC4F8487DE0118962D
:1004400080E090E04FE03091FD032D91FC01439F4F
:10045000E00DF11D1124EA5FFC4F258701968830DD
:10046000910589F78091FD0390E0019687709927A7
:100470008093FD0311FF4CC062E0CE0101960E9403
:10048000950C49815A816B817C813D812E818F81C0
:10049000E091FD039FE09E9FF0011124EA5FFC4F75
:1004A0004683578360877187E091FD039E9FF0012B
:1004B0001124EA5FFC4F3287E091FD039E9FF0011B
:1004C0001124EA5FFC4F2387E091FD039E9FF0011A
:1004D0001124EA5FFC4F8487DE01189680E090E0EB
:1004E0004FE03091FD032D91FC01439FE00DF11D84
:1004F0001124EA5FFC4F258701968830910589F722
:100500008091FD0390E00196877099278093FD0309
:1005100012FF1CC09091FE038091FF039817B1F069
:100520006091FE032FE0629FB00111246C577C4F55
:1005300081E00E94010C81E00E94E40B8091FE03A7
:1005400090E00196877099278093FE0313FF1CC0EB
:100550009091FE038091FF039817B1F06091FE0324
:100560003FE0639FB00111246C577C4F82E00E94F2
:10057000010C82E00E94E40B8091FE0390E0019662
:10058000877099278093FE0314FF1CC09091FE038F
:100590008091FF039817B1F06091FE038FE0689F90
:1005A000B00111246C577C4F84E00E94010C84E060
:1005B0000E94E40B8091FE0390E0019687709927DA
:1005C0008093FE0315FF18C080910B038130A1F4C6
:1005D00010920B031092FC031092FD031092FE0385
:1005E0001092FF0340910A03609108037091090380
:1005F00080E090E00E945F0B17FF18C080910B0312
:100600008130A1F410920B031092FC031092FD03B1
:100610001092FE031092FF0340910A0360910803B9
:100620007091090380E090E00E945F0B9091FC03C1
:100630008091FD03981709F49FC0E091FC038FE0BF
:100640008E9FF0011124EA5FFC4F4681578160853F
:1006500071854093E1015093E2016093E30170934F
:10066000E401E091FC038E9FF0011124EA5FFC4F4E
:1006700092859093E501E091FC038E9FF001112497
:10068000EA5FFC4F93859093E601E091FC038E9F17
:10069000F0011124EA5FFC4F84858093E70180E03C
:1006A00090E03FE02091FC03FC01329FE00DF11D42
:1006B0001124EA5FFC4F2585FC01EF51FE4F278393
:1006C00001968830910571F78091FC0390E00196C6
:1006D000877099278093FC034091E1015091E201DA
:1006E0006091E3017091E40191E08091F201811148
:1006F00090E081E0493725E052076105710509F076
:1007000080E0892361F08091F301811108C080911C
:10071000E8018093F2018091E9018093F30181E087
:100720009091F201911180E021E09091F3019111FB
:1007300020E091E04D3735E053076105710509F080
:1007400090E0982351F0222341F09091E80190939A
:10075000F4019091E9019093F501822369F0473803
:1007600055406105710541F48091E8018093F001E5
:100770008091E9018093F1012F960FB6F894DEBFC6
:100780000FBECDBFDF91CF911F9108950F931F939F
:10079000CF93DF93EC018B016AE571E08A819B8145
:1007A0000E94641BB8018A819B810E94661B6EEBCC
:1007B00071E08A819B810E94641B8A819B81DC019C
:1007C000ED91FC910680F781E02D099560E070E0E5
:1007D000CB01DF91CF911F910F910C943F15EF92B8
:1007E000FF920F931F93CF93DF931F92CDB7DEB786
:1007F0007C018B016AE571E0DC0112968D919C9180
:10080000139749830E94641BB801F7018281938189
:100810000E94661B498150E060E070E02AE0D70149
:1008200012968D919C9113970E94141B6EEB71E0B0
:10083000F701828193810E94641BD70112968D91EA
:100840009C911397DC01ED91FC910680F781E02DDE
:10085000099560E070E0CB010F90DF91CF911F917F
:100860000F91FF90EF900C943F154F925F926F9213
:100870007F928F929F92AF92BF92CF92DF92EF9230
:10088000FF920F931F93CF93DF93CDB7DEB72897D7
:100890000FB6F894DEBF0FBECDBFE8988BEB93E1A7
:1008A00090930301809302010E94920D582E8111B2
:1008B000F6C060919502709196028091000290912D
:1008C00001024091970250919802DC01ED91FC9158
:1008D0006115710521F00088F189E02D16C00684AC
:1008E000F785E02D20E431E03A83298300919102DD
:1008F0001091920220919302309194020B831C83F9
:100900002D833E83BE016F5F7F4F09958130910536
:1009100009F0BCC0909383028093820287E0ECE0F0
:10092000F1E0DE01119601900D928A95E1F7FE014A
:100930003196A7E0B2E04E0128E0820E911C819131
:100940008D93E815F905D9F782E080930E02109295
:100950000F028FE0809310024FE050E062E072E0FF
:100960008DE591E00E94C70DAC014550510962E050
:1009700072E080E10E94E80D0E9479156093840284
:100980007093850280938602909387026093880219
:100990007093890280938A0290938B028091000267
:1009A00090910102DC01ED91FC910084F185E02D34
:1009B0000995892BC1F40E94791500918802109144
:1009C000890220918A0230918B02DC01CB01801BCD
:1009D000910BA20BB30B88399A43A105B105F0F234
:1009E0008CEF9FEF43C082E092E00E94AA0E81113B
:1009F0008CC021C00F5F1F4F8885F801E050FE4F6B
:100A00008183282F2F7730E02C9DA0012D9D500D44
:100A10003C9D500D1124A40EB51E27E0CC0CDD1C0E
:100A2000EE1CFF1C2A95D1F787FF7BC0C4010E94F2
:100A3000AA0E8111DFCF00E010E004301105D1F4DF
:100A400080910502811111C00E947915609388027E
:100A50007093890280938A0290938B0210928C0289
:100A600010929C0210929B021AC090E090939C02FC
:100A700080939B028091000290910102DC01ED9134
:100A8000FC910488F589E02D099506C08EEF9FEF53
:100A900090939C0280939B020E94840DBBC06CE7E4
:100AA00071E089E991E00E94590E60EF71E08AEAF5
:100AB00091E00E94590E64E670E080E090E00E94B0
:100AC0003F1544E068ED71E08091000190910101D3
:100AD0000E947B2268ED71E089E991E00E94590E45
:100AE00064E670E080E090E00E943F158091000194
:100AF00090910101019690930101809300010E9461
:100B0000840D0E94920D582E85C0709002021886A6
:100B100001E010E0A12CB12CC12CD12C7601C394A2
:100B200085CF872D807F44244394803309F0412C66
:100B300077247A94700E442029F1C8018E5F9D4F6E
:100B40000E94AA0E882309F476CFC8018D5F9D4FBD
:100B50000E94AA0E882309F46ECF0E5F1F4FE72D67
:100B6000F0E0E050FE4FE380F12CFE2CEE24848177
:100B7000E80EF11C8091020281FF08C0B2E0EB0E8A
:100B8000F11C04C080E0E12CF12C01C082E0C82EF1
:100B9000D12CC01AD10A8EEF9FEF9C012719310981
:100BA0003901C601800F911F8A159B0538F5C401D4
:100BB0000E94AA0E882309F43ECF80919902909159
:100BC0009A02009781F0442071F09301200F311FA9
:100BD000E216F30640F4DC01ED91FC910190F08106
:100BE000E02D688509950038110528F48885F801FD
:100BF000E050FE4F82830F5F1F4FD3CF8091990249
:100C000090919A02892B09F018CF0138110508F448
:100C100014CF11CF852D28960FB6F894DEBF0FBEE6
:100C2000CDBFDF91CF911F910F91FF90EF90DF909B
:100C3000CF90BF90AF909F908F907F906F905F907C
:100C40004F9008952F923F924F925F926F927F92B2
:100C50008F929F92AF92BF92CF92DF92EF92FF92CC
:100C60000F931F93CF93DF93CDB7DEB768970FB67F
:100C7000F894DEBF0FBECDBF2C014D8B5E8B6F8B0A
:100C8000788F39011801FE86ED86D88ACF86BA8A18
:100C9000A98A9C8A8B8A60E470E0C9010E94B91914
:100CA0000E9479156B017C0160E070E0CB010E942D
:100CB0003F15D20112968D919C911397DC01ED9115
:100CC000FC910084F185E02D0995181619060CF0A9
:100CD00090C1D20112968D919C911397DC01ED91F8
:100CE000FC910284F385E02D0995181619060CF77E
:100CF00089831A8241E050E0BE016F5F7F4FC301DC
:100D00000E94E0192114310429F42D853E85232BFE
:100D1000D1F414C0B101CE0101960E946A1ABE013D
:100D20006F5F7F4FC3010E949919182FCE01019662
:100D30000E94651A112349F381E076C12F85388915
:100D4000232BD9F415C06D857E85CE0101960E94B6
:100D50006A1ABE016F5F7F4FC3010E949919182F55
:100D6000CE0101960E94651A112341F382E05CC115
:100D700029893A89232BD9F415C06F857889CE014A
:100D800001960E946A1ABE016F5F7F4FC3010E94E5
:100D90009919182FCE0101960E94651A112341F36B
:100DA00083E042C12B893C89232B51F515C0698909
:100DB0007A89CE0101960E946A1ABE016F5F7F4F49
:100DC000C3010E949919182FCE0101960E94651A3D
:100DD000112341F384E028C162EC70E0CE0101965A
:100DE0000E946A1ABE016F5F7F4FC3010E9499196A
:100DF000182FCE0101960E94651A111116C05FC00E
:100E00006B897C89CE0101960E946A1ABE016F5FD0
:100E10007F4FC3010E949919182FCE0101960E949D
:100E2000651A1123C9F285E0FFC0D20112966D91B7
:100E30007C9113974CE2CE0101960E94DD1ACE01FF
:100E400001960E94E617613071058105910559F5FB
:100E5000F201628173814AE0CE0107960E94DD1A99
:100E6000CE0107960E94E6174B015C01CE01079662
:100E70000E94651AF5E08F16910478F422E0820E44
:100E8000911C880C991CF201E80DF91D0190F0816C
:100E9000E02D309711F031E0368B60EC71E0C3014A
:100EA0000E94391A07C04D815E8169817A81C30130
:100EB0000E94E019CE0101960E94651AFACE69EBF4
:100EC00070E0CE0101960E946A1ABE016F5F7F4FEB
:100ED000C3010E949919182FCE0101960E94651A2C
:100EE000112309F4E6CED30114960D911C911597A8
:100EF000085011096EEB71E0CE0101960E94A21A12
:100F0000A801BE016F5F7F4FC3010E9450184C01C2
:100F1000CE0101960E94651AB2E08B0E911CF3017E
:100F2000848195818816990678F4A080B1806CE25E
:100F300070E0C501880D991D0E94AD27009721F032
:100F40008C010A191B0902C00FEF1FEF08151905C4
:100F500028F4982D892D4801092F182F60EC71E095
:100F6000CE0101960E94A21AD30114968D919C91F4
:100F7000159788169906D8F48017910708F48C0104
:100F8000D301ED91FC911197E00FF11FB080108219
:100F90006D917C91680D791DCE0101960E94391AE0
:100FA000F30180819181FC01E00FF11FB082CE013D
:100FB00001960E94E6174B015C01CE0101960E944A
:100FC000651AF5E08F16910470F422E0820E911CF0
:100FD000880C991CF201E80DF91D0190F081E02DBB
:100FE000309709F0158A60EC71E0C3010E94391A4C
:100FF00060CE0E947915DC01CB018C199D09AE09E8
:10100000BF092D893E894F89588D82179307A40700
:10101000B50708F449CEC3010E94F11760EC71E0F6
:10102000C3010E94391A80E068960FB6F894DEBFBB
:101030000FBECDBFDF91CF911F910F91FF90EF9029
:10104000DF90CF90BF90AF909F908F907F906F90E8
:101050005F904F903F902F9008952F923F924F9224
:101060005F926F927F928F929F92AF92BF92CF9238
:10107000DF92EF92FF920F931F93CF93DF93CDB741
:10108000DEB728970FB6F894DEBF0FBECDBF3C0188
:101090001A012B0160EC71E0CE0101962F83388795
:1010A0000E94A21A45015601670178012F813885F7
:1010B00089019E012F5F3F4FB201A101C3010E9430
:1010C0002206182FCE0101960E94651A812F2896BC
:1010D0000FB6F894DEBF0FBECDBFDF91CF911F9149
:1010E0000F91FF90EF90DF90CF90BF90AF909F90C7
:1010F0008F907F906F905F904F903F902F900895CA
:101100004F925F926F927F928F929F92AF92BF9217
:10111000CF92DF92EF92FF920F931F93CF93DF93C3
:1011200000D000D000D0CDB7DEB74C016C01512CFF
:101130003C0182E0680E711CD6011496AD90BC9003
:101140001597A114B10409F46EC0F50186898823AE
:1011500009F469C0168A452D6CEA70E0C4010E944A
:10116000EF0300E010E020E030E04FED51E061EAF5
:1011700070E0C4010E94E50E813051F1D601149651
:10118000ED90FC901597452D65E970E0C4010E9433
:10119000EF0308E610E023E730E04EE750E068E8B0
:1011A00070E0C4010E94E50E482E00E010E020E04F
:1011B00030E04FED51E067EE71E0C4010E94E50EB2
:1011C00091E0491290E0F701958BE12CF12C28C0B9
:1011D000C3010E94610DC3010E94610DD4011296EA
:1011E0006D917C9113974AE0CE0101960E94DD1A21
:1011F000CE0101960E94E6177B01CE0101960E9466
:10120000651A00E010E020E030E04FED51E067EEBD
:1012100071E0C4010E94E50EE114F10409F4AECFBF
:10122000F501F08AE786F2E0CF0ED11C539485E0F9
:10123000581282CFD40112968D919C911397DC01A4
:10124000ED91FC910084F185E02D0995892B91F0B9
:10125000A12CB12CC12CD12CE12CF12C00E010E000
:1012600020E030E04AE050E060E070E0C4010E941D
:101270002D08E0CF26960FB6F894DEBF0FBECDBF87
:10128000DF91CF911F910F91FF90EF90DF90CF9062
:10129000BF90AF909F908F907F906F905F904F9096
:1012A0000895EF92FF920F931F93CF93DF931F92B6
:1012B000CDB7DEB7082F162F8091FE019091FF0168
:1012C00079830E94251660E0809106030E94D31462
:1012D00082E00E941E16802F0E941E16E12E798148
:1012E000F72E87010C5F1F4FF70181917F010E944C
:1012F0001E16E016F106C1F761E0809106030E9418
:10130000D3140F90DF91CF911F910F91FF90EF9029
:101310000C941D1641E050E066ED71E00C94E0196C
:101320001F93CF93DF93182F8091FE019091FF01BF
:101330000E942516C6E0D3E060E088810E94D314A5
:1013400083E00E941E16812F0E941E1680E00E94DC
:101350001E16182F61E088810E94D3140E941D166A
:10136000812FDF91CF911F910895CF93C82F809146
:10137000FE019091FF010E94251660E08091060316
:101380000E94D31485E00E941E168FE00E941E1654
:1013900080EE0E941E168C2F0E941E1661E0809126
:1013A00006030E94D3140E941D166AE070E080E0DC
:1013B00090E00E943F158EE00E949009982F9C2398
:1013C00081E09C1380E0CF9108950F931F93CF93FA
:1013D000DF93082F162F8091FE019091FF010E944C
:1013E0002516C6E0D3E060E088810E94D31482E035
:1013F0000E941E16802F0E941E16812F0E941E160C
:1014000061E088810E94D314DF91CF911F910F91E9
:101410000C941D162F923F924F925F926F927F9283
:101420008F929F92AF92BF92CF92DF92EF92FF92F4
:101430000F931F93CF93DF93CDB7DEB72E970FB6E1
:10144000F894DEBF0FBECDBF6B017C012A8780916F
:10145000FE019091FF014C870E94251660E080916B
:1014600006030E94D31480EC0E941E1661E0809156
:1014700006030E94D3140E941D1660E08BE20E94B6
:10148000E50960E080E30E94E50960E080E40E94F5
:10149000E50960E080E50E94E5094C85642F70E075
:1014A00080E090E00E94D52220E034E244E759E455
:1014B0000E9434236E837F8388879987C701B60192
:1014C0000E94D3226B017C0120E030E44CE955E41A
:1014D0000E944125181654F42FE632E143E85AE3FE
:1014E000C701B6010E9434236B017C0120E030E08B
:1014F0004AE754E4C701B6010E9434239B01AC01C2
:1015000060E070E080E89FE30E9499242B013C0199
:101510001E861D862AE02D83212C312C00E211E449
:101520003D853B878D859E8501969E878D87BC0175
:10153000990F880B990B0E94D5229B01AC010E9448
:101540002D242E813F81488559850E9499249B0135
:10155000AC01C301B2010E9499246B017C010E947D
:101560000B2569837A838B839C8369817A817727B2
:10157000072E000C880B990B0E94D5229B01AC0111
:10158000C701B6010E942C24D62EE72EF82EC92EB4
:101590009101A8010E94CE2287FF13C08981885043
:1015A000813178F42981622F70E080E090E00E9420
:1015B000D3224B015C013B853D832D2C3E2C0F2D0E
:1015C0001C2D8D859E85CF9709F0AACFC501B4014A
:1015D0000E941225F62E70E080E090E00E94D52255
:1015E00023E333E343E35FE30E9434230E941225A5
:1015F000862F90E08C010150110917FD8C01159583
:1016000007956150E62EE01ADF2CD61A8FEF8D0D6C
:10161000F12CA8014E0D5F1D282F30E04217530713
:101620009CF1823088F16D818AE20E94E5096FEFBA
:10163000600F606891E0E91AF10883E0EE0CFF1C8E
:101640008A95E1F76E2989E20E94E5096EEF6D0D3A
:10165000606888E20E94E50960E08DE00E94E5098B
:101660002A85211102C080E001C080E60E94B509F0
:10167000882351F06FEF8BE20E94E5098AE20E9415
:10168000900991E03D81831390E0892F2E960FB64B
:10169000F894DEBF0FBECDBFDF91CF911F910F91A8
:1016A000FF90EF90DF90CF90BF90AF909F908F9082
:1016B0007F906F905F904F903F902F900895BF92D2
:1016C000CF92DF92EF92FF920F931F93CF93DF930E
:1016D0006B017C01142F611571058105910599F04D
:1016E00020E00E940A0A811103C080E090E062C0FD
:1016F000D0920903C092080310930A0381E08093FB
:101700000B03C60157C095E0C92ED12CE12CF12C5A
:10171000E60121E0412FC701B6010E940A0A882391
:1017200049F160E08CE20E94E50964EF71E080E03D
:1017300090E00E943F152091070330E0F901EE5E32
:10174000FD4F8491F901E25BFD4FB490F901E65C35
:10175000FD4F04910023E1F081110E94AA14E02FB3
:10176000F0E0EE0FFF1FE05DFD4FA591B491EC910D
:10177000EB2171F085E0C80ED11CE11CF11C88EE54
:10178000C81683E0D806E104F10409F0C1CFADCF5B
:101790008CE20E94900987FDEDCF80E00E94B509A0
:1017A000D0930903C093080310930A0381E0809348
:1017B0000B03CE01DF91CF911F910F91FF90EF901E
:1017C000DF90CF90BF9008951F93CF93DF93182F92
:1017D0008091FE019091FF010E942516C6E0D3E0A2
:1017E00060E088810E94D314812F80680E941E16B9
:1017F00061E088810E94D314DF91CF911F910C94F6
:101800001D16AF92BF92DF92EF92FF920F931F933C
:10181000CF93DF931F92CDB7DEB7282F5B018130C6
:1018200009F420E0F5018581408151816281738155
:101830008823E1F0DB01CA01F3E0880F991FAA1F9A
:10184000BB1FFA95D1F7EB2EDB01CA011BE0880F15
:10185000991FAA1FBB1F1A95D1F79B2F907E162F99
:1018600013701860192BF52ED42E15C0DB01CA0198
:1018700035E1880F991FAA1FBB1F3A95D1F7EB2EB0
:10188000EDE1440F551F661F771FEA95D1F7172F1B
:10189000107ED12CF12CF501068184818111006428
:1018A0008091FE019091FF0129830E94251660E03E
:1018B000809106030E94D3142981822F80640E94A4
:1018C0001E168E2D0E941E16812F0E941E168F2D11
:1018D0000E941E168D2D0E941E16802F0E941E161D
:1018E0007501F7E0EF0EF11C00E010E0F5018681D4
:1018F00090E00817190744F4F70181917F010E94D5
:101900001E160F5F1F4FF2CF61E0809106030E9409
:10191000D3140F90DF91CF911F910F91FF90EF9013
:10192000DF90BF90AF900C941D16AF92BF92CF92F4
:10193000DF92EF92FF920F931F93CF93DF931F924B
:10194000CDB7DEB75C01162F8091FE019091FF01AB
:101950000E94251660E0809106030E94D314812F17
:10196000880F80690E941E1680E00E941E16F82EC5
:1019700080E00E941E16582F80E059830E941E1698
:10198000082F80E00E941E16182F80E00E941E166D
:10199000982F5981E52FE870D5011596EC9315978E
:1019A0002F2D30E0652F70E0EE23D1F153706901E7
:1019B00085E0CC0CDD1C8A95E1F7F601E52BAF0143
:1019C000E5E075956795EA95E1F7660F771F660F75
:1019D000771F462B572B6A01550FEE08FF0883E04F
:1019E000359527958A95E1F7A901330F660B770B9B
:1019F000762F652F542F44274C295D296E297F2986
:101A0000762F652F542F4427402B762F652F542F88
:101A10004427412B4D935D936D937C9313971FC087
:101A200085E0759567958A95E1F7A901E3E0440F94
:101A3000551FEA95E1F7462B572BF5E0359527958D
:101A4000FA95E1F7322F2227422B532B052E000C5B
:101A5000660B770BF5014083518362837383892F73
:101A60008074D50114968C9314979F7016969C934E
:101A70006501B7E0CB0ED11CE12CF12C092F10E051
:101A8000E016F10654F480E00E941E16F6018193E0
:101A90006F01FFEFEF1AFF0AF3CF61E080910603B9
:101AA0000E94D3140E941D16C5010F90DF91CF91A3
:101AB0001F910F91FF90EF90DF90CF90BF90AF906C
:101AC0000895CF93DF93EC0188819981DC01ED913A
:101AD000FC910084F185E02D0995892B31F460E0BB
:101AE00070E0CB010E943F15EFCF88819981DC0126
:101AF000ED91FC910284F385E02D09958C9721F7F7
:101B000081E0DF91CF91089589ED91E090930301F9
:101B100080930201E9E6F0E080818C7F826080831F
:101B2000E89A08958091000290910102009759F17E
:101B3000DC01ED91FC910688F789E02D0995811172
:101B400024C080919B0290919C02892BE1F48DEF3F
:101B50009FEF90939C0280939B0280910002909152
:101B60000102DC01ED91FC910680F781E02D0995E1
:101B70008091000290910102DC01ED91FC910488BA
:101B8000F589E02D099580E0089581E00895CF93CF
:101B9000DF93DC014E5F5F4FFC019F012A1B3B0B73
:101BA0009191992339F0EB01C40FD51F98834F5FB2
:101BB0005F4FF3CFCA01821B930B680F791FFB01A4
:101BC0003297308331962083CA01DF91CF910895F7
:101BD000CF92DF92EF92FF920F931F93CF93DF93F9
:101BE00000D000D0CDB7DEB79A01E0E0922F9F770A
:101BF000220F232F221F330B31952115310509F0B8
:101C0000906801E00E0FA1E0B0E0AC0FBD1FAE0F79
:101C1000B11DFD0190832115310511F0E02FE6CFB4
:101C200010E0DB01A01BB10B14968C93FE013196E2
:101C30006F0180E090E08017910764F4F601F19065
:101C40006F019C01201B310B260F371FF901F58214
:101C50000196F1CF80910002909101024F5F5F4F9A
:101C6000040F151FFC0120813181F901228133818C
:101C7000A801BD01F90109957C010E9479156093C5
:101C8000840270938502809386029093870281E09C
:101C9000E016F10609F080E00F900F900F900F9082
:101CA000DF91CF911F910F91FF90EF90DF90CF9038
:101CB0000895EF92FF920F931F93CF93DF937C01D0
:101CC0008B01EB0109900020E9F72197C61BD70B88
:101CD0000E94920D8823B1F1F70101900020E9F7ED
:101CE0003197EE19FF09CE010796E80FF91FE13889
:101CF000F10540F545E050E062E072E0C7010E9466
:101D0000C70DF80120E030E02C173D0759F0419154
:101D1000D901A80FB91FA050BE4F12964C932F5F48
:101D20003F4FF2CF25503109A901480F591F62E0FA
:101D300072E080E3DF91CF911F910F91FF90EF90C0
:101D40000C94E80D80E0DF91CF911F910F91FF90EF
:101D5000EF900895CF92DF92EF92FF92CF93DF93AF
:101D6000EC010E9479156B017C0180910002909139
:101D70000102DC01ED91FC910084F185E02D0995D3
:101D8000892B79F40E947915AB01BC014C195D09CE
:101D90006E097F0948395A436105710530F380E0C7
:101DA0000DC08091000290910102DC01ED91FC9147
:101DB0000284F385E02D0995888381E0DF91CF913E
:101DC000FF90EF90DF90CF900895AF92BF92CF92A7
:101DD000DF92EF92FF920F931F93A12CB12C680119
:101DE00079018A019B0148EE53E060E070E00E94B7
:101DF0002D081F910F91FF90EF90DF90CF90BF9033
:101E0000AF9008950F931F93CF93DF93CDB7DEB7B5
:101E100028970FB6F894DEBF0FBECDBF082F8EE017
:101E20004D835E836F8378870E949009182F80E826
:101E30000E94B5094D815E816F817885DB01CA0101
:101E400025E1880F991FAA1FBB1F2A95D1F7B983D7
:101E50003DE1440F551F661F771F3A95D1F7872F35
:101E6000807E8A831B821C82BE016F5F7F4F802F22
:101E70000E945109812F0E94B50928960FB6F89447
:101E8000DEBF0FBECDBFDF91CF911F910F9108959F
:101E90000F931F93CF93DF93CDB7DEB728970FB67D
:101EA000F894DEBF0FBECDBF082F8EE04D835E835A
:101EB0006F8378870E949009182F80E80E94B509E7
:101EC0004D815E816F817885DB01CA0125E1880F34
:101ED000991FAA1FBB1F2A95D1F7B9833DE1440F73
:101EE000551F661F771F3A95D1F7872F807E8A830B
:101EF0001B821C82BE016F5F7F4F802F0E945109A1
:101F0000812F0E94B50928960FB6F894DEBF0FBE48
:101F1000CDBFDF91CF911F910F9108958FEF9FEF6C
:101F20000895CF93DF931F92CDB7DEB7DC01ED911B
:101F3000FC910288F389E02D41E050E0BE016F5F23
:101F40007F4F0995019719F4898190E002C08FEFC6
:101F50009FEF0F90DF91CF910895CF93DF931F9262
:101F6000CDB7DEB76983DC01ED91FC910280F3818E
:101F7000E02D41E050E0BE016F5F7F4F09950F906B
:101F8000DF91CF910895089580E090E008958F92B9
:101F90009F92AF92BF92CF92DF92EF92FF920F93F8
:101FA0001F93CF93DF9300D000D000D0CDB7DEB722
:101FB0006C014B015A0160E070E0CB010E943F15BB
:101FC000D6011C968D919C911D970E948008F60168
:101FD000E484F58485012CE246856FED72E0C7014B
:101FE0000E94B81600E010E020E030E04FED51E034
:101FF0006DED72E0C7010E94E50E813019F000E03E
:1020000010E03AC0D70112968D919C911397DC0194
:10201000ED91FC910280F381E02DA501B4010995B9
:10202000F70182819381DC01ED91FC910680F781BB
:10203000E02D099500E010E020E030E04FED51E0A8
:102040006EEC72E0C7010E94E50E8130C1F6C70157
:1020500002960E94610DF701628173814AE0CE0110
:1020600001960E94DD1ACE0101960E94E6178B01AF
:10207000CE0101960E94651AC80126960FB6F89403
:10208000DEBF0FBECDBFDF91CF911F910F91FF90AB
:10209000EF90DF90CF90BF90AF909F908F9008957A
:1020A0002F923F924F925F926F927F928F929F9268
:1020B000AF92BF92CF92DF92EF92FF920F931F9356
:1020C000CF93DF93CDB7DEB72E970FB6F894DEBF70
:1020D0000FBECDBF7C011B015C874B8760E070E0C9
:1020E000CB010E943F15D7011C968D919C911D97A5
:1020F0000E948008412C512CF701E95AFF4FFA87C2
:10210000E987C701875A9F4F98878F83D7015796D2
:10211000BE87AD87EB85FC854E165F0608F01FC1B4
:10212000D70155968C91882309F419C1E985FA8560
:1021300000811181AF81B8858D919C91081B190B8D
:1021400017FF02C0005C1F4F8B859C858419950981
:102150008017910708F48C010115110509F441C09D
:1021600048013101EF81F885A080B180A985BA8549
:102170008D919C918A199B0997FF02C0805C9F4FAB
:10218000009729F4200E311E400E511EC3CF20E4CB
:1021900030E02A193B09582D492D2815390514F42A
:1021A000522F432FC52ED42E8C159D050CF46C0197
:1021B0006D857E856A0D7B1DA601C3010E94922755
:1021C000AC0CBD1CBFE3AB22BB24EF81F885B18210
:1021D000A0828C189D086C0C7D1C8114910491F2D6
:1021E000C1CFD7011C968D919C911D970E948008AC
:1021F000F70187859089892B09F4B1C09684AF8156
:10220000B8850D911C91E985FA8580819181081B23
:10221000190B1016110614F0005C1F4FD7011C9605
:10222000CD90DC901D97015011092CE2492D64EFEF
:1022300072E0C6010E94B81600E010E020E030E035
:102240004FED51E069EE72E0C6010E94E50E81306B
:1022500009F060CF86010E5F1F4FC8010E94610D1B
:10226000C8010E94610DF601628173814CE2CE01CA
:1022700001960E94DD1ACE0101960E94E6173B01ED
:10228000CE0101960E94651A5601A90CB11CA90C39
:10229000B11CD50114960D911C911597F601628120
:1022A00073814AE0CE0101960E94DD1ACE010196AB
:1022B0000E94E617D80150967C936E931F97CE012B
:1022C00001960E94651A00E010E006151705D8F582
:1022D000F60182819381DC01ED91FC910084F1850E
:1022E000E02D0995892B31F460E070E0CB010E946C
:1022F0003F15EECFF60182819381DC01ED91FC91D7
:102300000284F385E02D0995F501448155814A0148
:10231000F7E58F0E911CF401A081B1819D012F5F23
:102320003F4F2F733327329660817181261737070D
:1023300039F0A40FB51F57968C93D4012D933C937D
:102340000F5F1F4FC2CF00E010E020E030E04FED04
:1023500051E067EE71E0C6010E94E50EDBCEC201DE
:102360002E960FB6F894DEBF0FBECDBFDF91CF9192
:102370001F910F91FF90EF90DF90CF90BF90AF90A3
:102380009F908F907F906F905F904F903F902F9095
:1023900008958F929F92AF92BF92EF92FF920F9308
:1023A0001F93CF93DF93EC0160E070E0CB010E94BC
:1023B0003F158E01095A1F4F7E0129E5E20EF11CDF
:1023C000F80120813181F70180819181281B390B2F
:1023D00037FF3FC0203CFFEF3F0751F58D89882331
:1023E000E9F00E94791589889A88AB88BC88DC015D
:1023F000CB0188199909AA09BB09853F9140A1051C
:10240000B10540F081E08E8B0E947915698B7A8B43
:102410008B8B9C8B8C859D850E948008F801208188
:102420003181F70180819181281B390B37FF02C070
:10243000205C3F4F8F859889820F931FDF91CF914A
:102440001F910F91FF90EF90BF90AF909F908F9052
:1024500008952115310511F2EDCF0F931F93CF93FE
:10246000DF93EC0160E070E0CB010E943F154E85E8
:1024700063EC72E08C859D850E94EF031D8A00E06D
:1024800010E020E030E04FED51E067EE71E08C8528
:102490009D850E94E50EFE01E75AFF4F11821082D2
:1024A000C95ADF4F19821882DF91CF911F910F9186
:1024B0000895EF92FF920F931F93CF93DF93CDB7C1
:1024C000DEB728970FB6F894DEBF0FBECDBF7C01F4
:1024D0008B0160EC71E0CE0101964F8358870E941A
:1024E000A21A60E170E0CE0101960E94B919D801EC
:1024F00012966C91CE0101960E940E1ACE010196A1
:102500000E948A09F8016381CE0101960E940E1A89
:10251000CE0101960E948A09D80114966C91CE01D1
:1025200001960E940E1ACE0101960E948A09F801B6
:102530006581CE0101960E940E1AD701ED91FC91A2
:1025400069817A810088F189E02D4F815885C70122
:1025500009958C01CE0101960E94651AC801289642
:102560000FB6F894DEBF0FBECDBFDF91CF911F91A4
:102570000F91FF90EF9008958F929F92AF92BF922C
:10258000CF92DF92EF92FF920F931F93CF93DF933F
:102590004C016B017A01DC01ED91FC910488F58915
:1025A000E02D099560E070E0CB010E943F15F40139
:1025B000E75AFF4F11821082329711821082F40184
:1025C000B684C485D5856AE571E08A819B810E94C5
:1025D000641B6AEB72E08A819B810E94661B2AE081
:1025E00040E050E0BA018A819B810E94141B6EEB8F
:1025F00071E08A819B810E94641B8A819B81DC013E
:10260000ED91FC910680F781E02D099560E070E086
:10261000CB010E943F1500E010E020E030E04FEDDC
:1026200051E067EE71E0CE010E94E50E90E09983E3
:1026300088836AE571E08A819B810E94641B6FEA4E
:1026400072E08A819B810E94661B4B2D50E060E006
:1026500070E02AE08A819B810E94141B6CE28A81CF
:102660009B810E945D1B6AEA72E08A819B810E94C5
:10267000661B66EA72E08A819B810E94661BB60136
:102680008A819B810E94641B63EA72E08A819B813C
:102690000E94661BA70160E070E02AE08A819B81AE
:1026A0000E94141B6EEB71E08A819B810E94641B67
:1026B0008A819B81DC01ED91FC910680F781E02D00
:1026C000099560E070E0CB010E943F1582E6A82EDC
:1026D00082E0B82E9DE6C92E92E0D92E25E7E22EA3
:1026E00022E0F22E07E812E026E932E048EF54E259
:1026F00061E070E0CE010E942D08282F30E0398380
:10270000288381E02130310509F080E0F401858BD8
:1027100090E0DF91CF911F910F91FF90EF90DF90AC
:10272000CF90BF90AF909F908F9008953FB7F8944F
:102730008091760490917704A0917804B091790407
:1027400026B5A89B05C02F3F19F00196A11DB11D0C
:102750003FBFBA2FA92F982F8827820F911DA11D47
:10276000B11DBC01CD0142E0660F771F881F991F84
:102770004A95D1F7089508952091DF013091E00145
:102780002817390771F49091DD018091DE019817C7
:1027900041F0E091DD01F0E0EF5CFB4F808190E0E3
:1027A00008958FEF9FEF089508951F93CF93DF93C0
:1027B000DC015C962D913C915D972115310539F432
:1027C00081E090E013969C938E9312973DC05196B2
:1027D000ED91FC91529750969C915097892F80953E
:1027E0001FB75E964C915E9741FB772770F941FDCC
:1027F0006095F8944081772311F0492B01C048235C
:102800004083E9012197F1F748E0508160FF02C061
:10281000592B01C058235083E9012197F1F76695A0
:10282000415099F7772321F090818923808303C059
:102830008081982B90831FBF5C968D919C915D97B2
:102840000197F1F721E030E0C901DF91CF911F91AD
:1028500008952091DF013091E0012817390771F4C4
:102860008091DE012091DD0190E0805C9F4F821B12
:10287000910960E470E00E944625089580E090E0B0
:1028800008952091DF013091E00128173907B9F44C
:102890009091DD018091DE01981789F0E091DD01D2
:1028A000F0E0EF5CFB4F80812091DD0130E02F5F95
:1028B0003F4F2F7333272093DD0190E008958FEF72
:1028C0009FEF08958F929F92AF92BF92CF92DF9227
:1028D000EF92FF920F931F93CF93DF937C018B01B5
:1028E0006C0182E0C80ED11C4701E5E08E0E911C00
:1028F000C0E0D0E0F60141916F0150E060E070E08F
:102900002AE0C8010E94141B5C016EE2C8010E940B
:102910005D1B8A0D9B1DC80FD91FC814D90451F720
:10292000F701458150E060E070E02AE0C8010E94B4
:10293000141B8C0F9D1FDF91CF911F910F91FF9062
:10294000EF90DF90CF90BF90AF909F908F900895C1
:102950000E948D27833081F028F4813099F08230F5
:10296000A1F008958730A9F08830B9F08430D1F40F
:10297000809180008F7D03C0809180008F7780934D
:102980008000089584B58F7702C084B58F7D84BDA3
:1029900008958091B0008F7703C08091B0008F7D43
:1029A0008093B00008951F93CF93DF93282F30E0DA
:1029B000F901EE5EFD4F8491F901E25BFD4FD49188
:1029C000F901E65CFD4FC491CC23C9F0162F8111AB
:1029D0000E94AA14EC2FF0E0EE0FFF1FEA5DFD4FFE
:1029E000A591B4918FB7F894111105C09C91ED2F6A
:1029F000E095E92302C0EC91ED2BEC938FBFDF91C2
:102A0000CF911F910895CF93DF9390E0FC01E25B9B
:102A1000FD4F2491FC01E65CFD4F8491882361F118
:102A200090E0880F991FFC01E85FFD4FC591D4919C
:102A3000FC01EA5DFD4FA591B491611109C09FB7FA
:102A4000F8948881209582238883EC912E230BC0F3
:102A5000623061F49FB7F8943881822F8095832388
:102A60008883EC912E2B2C939FBF06C08FB7F894D0
:102A7000E8812E2B28838FBFDF91CF9108958F920D
:102A80009F92AF92BF92CF92DF92EF92FF926B0133
:102A90007C010E9496134B015C01C114D104E10436
:102AA000F104F1F00E949613DC01CB018819990919
:102AB000AA09BB09883E9340A105B10570F321E046
:102AC000C21AD108E108F10888EE880E83E0981E4A
:102AD000A11CB11CC114D104E104F10419F7DDCF2C
:102AE000FF90EF90DF90CF90BF90AF909F908F902E
:102AF00008952FB7F89460917204709173048091D7
:102B00007404909175042FBF08951F920F920FB611
:102B10000F9211242F933F938F939F93AF93BF9363
:102B20008091720490917304A0917404B091750423
:102B30003091710423E0230F2D3720F40196A11D5D
:102B4000B11D05C026E8230F0296A11DB11D2093DB
:102B500071048093720490937304A0937404B093EF
:102B600075048091760490917704A0917804B091D7
:102B700079040196A11DB11D80937604909377048A
:102B8000A0937804B0937904BF91AF919F918F91F6
:102B90003F912F910F900FBE0F901F9018951F928D
:102BA0000F920FB60F9211242F933F934F935F9381
:102BB0006F937F938F939F93AF93BF93EF93FF9305
:102BC000E0910401F09105010995FF91EF91BF910A
:102BD000AF919F918F917F916F915F914F913F91B5
:102BE0002F910F900FBE0F901F9018951F920F926C
:102BF0000FB60F9211242F933F934F935F936F93D0
:102C00007F938F939F93AF93BF93EF93FF93E09145
:102C10000201F09103010995FF91EF91BF91AF91EE
:102C20009F918F917F916F915F914F913F912F91E4
:102C30000F900FBE0F901F90189508958EBD000045
:102C40000DB407FEFDCF8EB508958CBD9DBD0895D2
:102C50001F920F920FB60F9211242F933F934F9311
:102C60005F936F937F938F939F93AF93BF93EF93F4
:102C7000FF93E091DF01F091E001309709F451C03A
:102C8000968DA685B785858591FF04C09C91892383
:102C900029F447C09C91892309F043C0A389B489D2
:102CA0009C918589809589238C9386899789019742
:102CB000F1F7608D718DA685B785558538E020E0E8
:102CC000CB010197F1F7822F90E095958795282FFA
:102CD0004C91452309F02068315091F7868D81FD94
:102CE00020958091DE0190E001968F7399273091B5
:102CF000DD01381749F0A091DE01B0E0AF5CBB4FB9
:102D00002C938093DE0103C0868D8160868F828D37
:102D1000938D0197F1F7A389B4899C918589892BBB
:102D20008C93FF91EF91BF91AF919F918F917F9184
:102D30006F915F914F913F912F910F900FBE0F9028
:102D40001F901895E091DF01F091E001E817F90775
:102D500069F4A389B4899C918589809589238C9392
:102D60001092E0011092DF0181E0089580E0089563
:102D7000AF92BF92CF92DF92FF920F931F93CF93A8
:102D8000DF931F92CDB7DEB75C016B01F22E6AE5CF
:102D900071E0DC0112968D919C91139749830E94FA
:102DA000641BB601F501828193810E94661B4981F3
:102DB00050E060E070E02AE0D50112968D919C9180
:102DC00013970E94141B6F2DF501828193810E943D
:102DD0005D1BA80160E070E02AE0D50112968D919C
:102DE0009C9113970E94141B6EEB71E0F501828198
:102DF00093810E94641BD50112968D919C9113972B
:102E0000DC01ED91FC910680F781E02D099560E0F1
:102E100070E0CB010F90DF91CF911F910F91FF9048
:102E2000DF90CF90BF90AF900C943F15CF92DF9280
:102E3000EF92FF920F931F93CF93DF931F92CDB723
:102E4000DEB76C017B018A016AE571E0DC01129654
:102E50008D919C91139729830E94641BB701F60101
:102E6000828193810E94661BB801D60112968D91D2
:102E70009C9113970E94641B2981622FF601828125
:102E800093810E945D1B6EEB71E0D60112968D91CD
:102E90009C9113970E94641BF60182819381DC014F
:102EA000ED91FC910680F781E02D099560E070E0DE
:102EB000CB010F90DF91CF911F910F91FF90EF9079
:102EC000DF90CF900C943F15CF92DF92EF92FF925C
:102ED0000F931F93CF93DF936C017A018B01C0E0B6
:102EE000D0E0CE15DF0589F0D8016D918D01D601B6
:102EF000ED91FC910190F081E02DC6010995892B9F
:102F000011F47E0102C02196ECCFC701DF91CF9171
:102F10001F910F91FF90EF90DF90CF900895611572
:102F2000710579F0FB0101900020E9F73197AF01BD
:102F3000461B570BDC01ED91FC910280F381E02DE3
:102F4000099480E090E00895CF93DF93EC018881AD
:102F50009981009711F00E942B26198218821D82F8
:102F60001C821B821A82DF91CF9108950F931F93C9
:102F7000CF93DF93EC010E947915688779878A8760
:102F80009B87E881F9810284F385E02DCE010995C4
:102F900097FF17C00E947915088519852A853B85FA
:102FA000DC01CB01801B910BA20BB30B0C811D81AB
:102FB0002E813F8180179107A207B30710F38FEF8F
:102FC0009FEFDF91CF911F910F910895FC018081B8
:102FD0009181009711F00C94442260E070E0CB01E5
:102FE0000895AF92BF92CF92DF92EF92FF920F932C
:102FF0001F93CF93DF93DC01CD90DC901197C11428
:10300000D10409F442C01496CD91DC911597209714
:10301000E1F18C0156017501BFEFAB1ABB0AF70154
:103020008081082E000C990B0E94B522892B99F7FC
:103030002197CC0DDD1D8881082E000C990B0E9474
:10304000B522892B91F4AE014F5F5F4F4E195F0996
:10305000D80115965C934E931497CE14DF0450F468
:10306000B701C6010E94922705C0CE15DF0558F3AF
:103070002197E1CFD801ED91FC91119714968D9194
:103080009C911597E80FF91F1082DF91CF911F9146
:103090000F91FF90EF90DF90CF90BF90AF90089589
:1030A000AF92BF92CF92DF92EF92FF920F931F9356
:1030B000CF93DF937B018A01FB0144815581411548
:1030C000510561F1FC01248135812115310531F172
:1030D0002417350718F10217130718F0890101505A
:1030E0001109FC01A080B180C501DFEFCFEF6501C0
:1030F000C00ED11EC816D906A0F0F70160817181FB
:103100000E94C827009769F09C012A193B09021701
:10311000130710F0D22FC32F0196ECCF8FEF9FEF44
:1031200002C08D2F9C2FDF91CF911F910F91FF90A7
:10313000EF90DF90CF90BF90AF9008952F923F9285
:103140004F925F926F927F928F929F92AF92BF92B7
:10315000CF92DF92EF92FF920F931F93CF93DF9363
:10316000FC01448055804114510409F4CFC0FB0197
:10317000648075806114710409F4C8C07A016B0120
:10318000EC01FA01A480B580A618B708088119815E
:10319000A114B104C1F4F60160817181C8010E94DB
:1031A000C827EC01892B09F4B1C0F7016081718156
:1031B00044815581CE010E949227F7010481158137
:1031C0000C0F1D1FE8CFB7FE02C0480106C0FB016F
:1031D000208031804201C80142C0F60160817181C6
:1031E000C4010E94C8272C01892B19F132016818EB
:1031F0007908A301B401C8010E949227060D171D8A
:10320000F7016081718144815581C8010E94922734
:10321000F70184819581080F191FF601848095803C
:10322000840C951C8C819D818A0D9B1D9D838C83B4
:10323000D4CFB401C801DF91CF911F910F91FF90BE
:10324000EF90DF90CF90BF90AF909F908F907F9046
:103250006F905F904F903F902F900C94C127B101D9
:103260000E94C827009729F0860D971D8A0C9B1C89
:10327000F6CF8414950409F449C08A819B8188158E
:10328000990560F4B4016F5F7F4FC8010E94C326A7
:103290000097E1F1998388839B828A824C815D81CA
:1032A0004150510957FD32C0B601CE010E9450185D
:1032B0008C0197FD2BC088819981F601248135818D
:1032C000200F311F820F931F4C815D81421B530BD6
:1032D000BC018A0D9B1D0E949B278C819D818A0DBC
:1032E0009B1D9D838C8328813981F901E80FF91F8B
:1032F000108288819981F7016081718144815581B3
:10330000800F911F0E949227A801CACFDF91CF9111
:103310001F910F91FF90EF90DF90CF90BF90AF90F3
:103320009F908F907F906F905F904F903F902F90E5
:103330000895FC0124813581FB01448155812417C6
:103340003507A0F0FC0180819181009779F0FB01A5
:10335000608171816115710549F0241B350B820F65
:10336000931F0E94B82721E0892B09F020E0822FCB
:1033700008950F931F93CF93DF93EC018881998178
:10338000009729F02A813B812617370788F48B01A3
:103390006F5F7F4F0E94C326009761F099838883F7
:1033A0001B830A832C813D81232B11F4FC011082A5
:1033B00081E001C080E0DF91CF911F910F910895CE
:1033C000EF92FF920F931F93CF93DF93FC01248121
:1033D00035816115710511F480E019C04115510561
:1033E000A9F07B01EC018A01020F131FB8010E94B2
:1033F000B919882389F3288139818C819D81B7018E
:10340000820F931F0E94C1271D830C8381E0DF91EF
:10341000CF911F910F91FF90EF900895EF92FF923F
:103420000F931F93CF93DF9300D000D0CDB7DEB7BB
:103430007C01862F4AE08E010F5F1F4FB80190E09C
:103440000E947B22F80101900020E9F73197AF013B
:10345000401B510BB801C7010E94E0190F900F905B
:103460000F900F90DF91CF911F910F91FF90EF90F0
:103470000895EF92FF920F931F93CF93DF938C01E8
:103480007B016115710569F0FB0101900020E9F7EE
:103490003197EF01C61BD70BBE010E94B9198111EC
:1034A00004C0C8010E94A41708C0F801D583C483D2
:1034B000B701808191810E94C127C801DF91CF911E
:1034C0001F910F91FF90EF900895FC0180819181F1
:1034D0000C942B26EF92FF920F931F93CF93DF93C1
:1034E000EC01198218821B821A821D821C826115CE
:1034F000710509F18B01CB010E9472227C01BC0194
:10350000CE010E94B919811109C0CE01DF91CF917E
:103510001F910F91FF90EF900C94A417FD82EC8205
:10352000B80188819981DF91CF911F910F91FF9010
:10353000EF900C946B22DF91CF911F910F91FF9030
:10354000EF900895EF92FF920F931F93CF93DF9325
:10355000EC01198218821B821A821D821C8261155D
:10356000710521F18B01FB0101900020E9F73197F2
:103570007F01E61AF70AB7010E94B919811109C043
:10358000CE01DF91CF911F910F91FF90EF900C949E
:10359000A417FD82EC82B80188819981DF91CF91D7
:1035A0001F910F91FF90EF900C94C127DF91CF9165
:1035B0001F910F91FF90EF900895CF92DF92EF92BD
:1035C000FF920F931F93CF93DF9300D0CDB7DEB759
:1035D0008C016B01E42E60EC71E00E94A21AC6011E
:1035E0000E94B6170E2C000CFF0897FD11C08E1517
:1035F0009F0571F089831A8241E050E0BE016F5F40
:103600007F4FC8010E94E019C6010E94B617EDCF96
:10361000C8010F900F90DF91CF911F910F91FF90F4
:10362000EF90DF90CF9008954F925F926F927F92CC
:10363000EF92FF920F931F93CF93DF93CDB7DEB737
:10364000A1970FB6F894DEBF0FBECDBF7C01FA0183
:10365000CB0119A2223008F42AE08E010F5D1F4F22
:10366000422E512C612C712CBF01A30192010E94AA
:103670005A25F901CA01015011096A3014F4605D3C
:1036800001C0695CD8016C93232B242B252B61F797
:10369000B801C7010E948F17A1960FB6F894DEBF3C
:1036A0000FBECDBFDF91CF911F910F91FF90EF9093
:1036B0007F906F905F904F900895DC01ED91FC91A9
:1036C0000190F081E02D09940C948F17EF92FF92F6
:1036D0000F931F93CF93DF938C017B01C0E0D0E069
:1036E000F701EC0FFD1F6491662361F0D801ED91A5
:1036F000FC910190F081E02DC8010995892B11F012
:103700002196EECFCE01DF91CF911F910F91FF90C7
:10371000EF900895CF93DF93CDB7DEB762970FB6E2
:10372000F894DEBF0FBECDBF789484B5826084BDAF
:1037300084B5816084BD85B5826085BD85B58160B5
:1037400085BD80916E00816080936E001092810033
:1037500080918100826080938100809181008160EE
:1037600080938100809180008160809380008091AF
:10377000B10084608093B1008091B000816080933B
:10378000B00080917A00846080937A0080917A0002
:10379000826080937A0080917A00816080937A00C1
:1037A00080917A00806880937A001092C10064E66C
:1037B00070E080E090E00E943F151092210410928A
:1037C000200410921F0410921E0410921D041092E7
:1037D0001C048DE991E0909323048093220490913E
:1037E0001204963108F057C02DEB30E030931D04E1
:1037F00020931C042BE931E030931F0420931E0416
:103800002CE231E0309321042093200420916800C1
:10381000983050F031E09E3008F430E081E001C093
:10382000880F3A95EAF701C084E0822B8093680004
:10383000983038F09E3040F0963148F020E030E08B
:1038400008C02DE630E005C02BE630E002C02CE6D3
:1038500030E030931A0420931904983030F481E05A
:1038600001C0880F9A95EAF70EC0292F30E09E30EC
:1038700018F42850310902C02E50310981E001C0EE
:10388000880F2A95EAF780931B0480912204909177
:1038900023040197F1F78091200490912104892B52
:1038A00021F18091DF019091E00124E086309207C0
:1038B000E1F0009711F00E94A216809124048E7FFF
:1038C000809324041092DE011092DD0186E094E0E2
:1038D0009093E0018093DF01E0911904F0911A04C4
:1038E000908180911B04892B808364E670E080E0E6
:1038F00090E00E943F150E9479152B013C010E9427
:103900007915DC01CB0184199509A609B709803125
:103910009742A105B10508F091C069E071E088EF18
:1039200092E00E94C603A12CB12CC12CD12CE12C19
:10393000F12C0FED11E027EE31E048EC50E060E0B3
:1039400070E088EF92E00E942D08813081F564E6F6
:1039500070E080E090E00E943F1565E071E088EF44
:1039600092E00E94C60300E010E020E030E04FED5E
:1039700051E067EE71E088EF92E00E94E50E62E0B0
:1039800071E088EF92E00E94C60320E030E04FED46
:1039900051E067EE71E088EF92E00E94E50E813021
:1039A00009F04CC00E9479156B017C0121C064E6CE
:1039B00070E080E090E00E943F15A1CF6BEF70E0D7
:1039C00088EF92E00E94C60300E010E020E030E0C3
:1039D0004FED51E062EF70E088EF92E00E94E50E5B
:1039E0008130A1F068EE73E080E090E00E943F1526
:1039F0000E947915DC01CB018C199D09AE09BF0924
:103A000080319742A105B105C8F218C00FEC10E053
:103A10002CED30E044EE50E06CEE70E088EF92E088
:103A20000E94E50E00E010E020E030E04FED51E0B4
:103A300067EE71E088EF92E00E94E50E6AE071E0C7
:103A400088EF92E00E94C60360EC71E0CE010D9613
:103A50000E94A21A812C912CA12CB12CC12CD12C0A
:103A60009FEDE92E91E0F92E07EE11E09E01235F14
:103A70003F4F48EE53E060E070E088EF92E00E9434
:103A8000220660EC71E0813029F0CE0107960E9499
:103A9000A21A50C0CE0107960E94A21A6AEB71E0EA
:103AA000CE0101960E94A21AAE01495F5F4FBE018E
:103AB0006F5F7F4FCE010D960E949E18CE0101963A
:103AC0000E94651ACE0107960E94651A61EC71E0AA
:103AD000CE0107960E94A21A6EEB71E0CE0101960C
:103AE0000E94A21AAE01495F5F4FBE016F5F7F4F18
:103AF000CE010D960E949E18CE0101960E94651A75
:103B0000CE0107960E94651ACE010D960E94F1170C
:103B10008D859E8598878F838F8598899A878987D9
:103B200089899A899C878B871E861D86188A1F869D
:103B30001A8A198ACE010D960E94651A0E9479157B
:103B40006B017C010E947915DC01CB018C199D0968
:103B5000AE09BF0980369A4EA105B10578F765E137
:103B600071E088EF92E00E94C60300E010E020E0E0
:103B700030E04FED51E06CE071E088EF92E00E94A0
:103B8000E50E813039F58AEF92E00E94610D609177
:103B9000FA027091FB024AE0CE0101960E94DD1A02
:103BA000CE0101960E94E6174B015C01CE01019601
:103BB0000E94651A20E030E04FED51E067EE71E0C1
:103BC00088EF92E00E94E50EE89482F88A948928B2
:103BD00009F479C06AEF70E080E090E00E943F1540
:103BE000B1CF6CEE71E088EF92E00E94C60300E076
:103BF00010E020E030E04FED51E067EE71E088EF3B
:103C000092E00E94E50E22E245E151E06CEC71E0A9
:103C100088EF92E00E94161720E030E04FED51E06F
:103C200067EE71E088EF92E00E94E50E22E245E146
:103C300051E06AEB71E088EF92E00E94161720E0F5
:103C400030E04FED51E067EE71E088EF92E00E94C6
:103C5000E50E6FEA71E088EF92E00E94C603A12CA6
:103C6000B12CC12CD12CE12CF12C0FED11E027EE61
:103C700031E040E65AEE60E070E088EF92E00E94AA
:103C80002D0864EA71E088EF92E00E94C60327EEF7
:103C900031E048E05CE461E070E088EF92E00E948F
:103CA0002D0869E971E088EF92E00E94C60327EED3
:103CB00031E040E355E760E070E088EF92E00E9479
:103CC0002D08813061F16CE471E088EF92E00E9490
:103CD000C603A12CB12CC12CD12CE12CF12C0FED61
:103CE00011E027EE31E040E65AEE60E070E088EF48
:103CF00092E00E942D08813009F073CF63E471E0F7
:103D000088EF92E00E94C60327EE31E040E65AEECB
:103D100060E070E088EF92E00E942D0862CF60E9D9
:103D200071E088EF92E00E94C60327EE31E040E6A2
:103D30005AEE60E070E088EF92E00E942D0881303A
:103D400011F666E871E088EF92E00E94C60300E099
:103D500010E020E030E04FED51E067EE71E088EFD9
:103D600092E00E94E50E813009F0ADCF6AE771E084
:103D700088EF92E00E94C60320E030E04FED51E072
:103D800067EE71E088EF92E00E94E50E813009F065
:103D90009ACF6EE671E088EF92E00E94C60320E0C1
:103DA00030E04FED51E067EE71E088EF92E00E9465
:103DB000E50E813009F087CF6AE571E08091FA0263
:103DC0009091FB020E94641B66E671E08091FA020A
:103DD0009091FB020E94661B65E171E08091FA02FE
:103DE0009091FB020E94641B62E671E08091FA02EE
:103DF0009091FB020E94661B64E171E08091FA02DF
:103E00009091FB020E94641B6EE571E08091FA02C2
:103E10009091FB020E94661B63E171E08091FA02BF
:103E20009091FB020E94641B6CE571E08091FA02A4
:103E30009091FB020E94661B6EEB71E08091FA028A
:103E40009091FB020E94641B8091FA029091FB0208
:103E5000DC01ED91FC910680F781E02D099560E091
:103E600070E0CB010E943F150FED11E027EE31E02D
:103E700040E65AEE60E070E088EF92E00E942D0884
:103E8000813009F020CF65E571E088EF92E00E9473
:103E9000C60327EE31E040E65AEE60E070E088EFBE
:103EA00092E00E942D08813009F00DCF69E371E0A6
:103EB00088EF92E00E94C60327EE31E040E157E22E
:103EC00060E070E088EF92E00E942D08813009F0F8
:103ED000FACE6CE171E088EF92E00E94C60300E048
:103EE00010E020E030E04FED51E067EE71E088EF48
:103EF00092E00E94E50E813009F0E5CE83EC91E07E
:103F000090939602809395028BE597E090939802A8
:103F1000809397028CB58C7F8CBD8DB581608DBDF3
:103F20008CB5837F8CBD8CB58F7D8CBD1FB7F8940D
:103F30008091F901811127C0E4E4F2E08491E8E581
:103F4000F2E09491E82FF0E0EE0FFF1FE85FFD4FE5
:103F5000A591B491EC91E92321F461E08AE00E94FB
:103F6000D31461E08AE00E9403158CB580618CBD9A
:103F70008CB580648CBD61E08DE00E94031561E02A
:103F80008BE00E9403158091F9018F5F8093F90106
:103F90001FBF48E06AEF70E080E090E00E945F0B96
:103FA0000E94840D4FEF57E060E070E080E20E94D5
:103FB000480F4FEF57E060E070E084E20E94480F46
:103FC0004FEF57E060E070E080E00E94020F4FEF9B
:103FD00057E060E070E084E00E94020F4FEF57E08E
:103FE00060E070E088E00E94020F4FEF57E060E071
:103FF00070E080E10E94020F4FEF57E060E070E058
:1040000084E10E94020F4FEF57E060E070E088E12A
:104010000E94020F40E050E0BA0180E20E94480F87
:1040200040E051E060E070E080E00E94020F0E94FA
:10403000840D64E670E080E090E00E943F151092ED
:10404000E50184E496E0A0E0B0E08093E101909384
:10405000E201A093E301B093E4018091FE0190910D
:10406000FF010E94251660E0809106030E94D31490
:1040700080EA0E941E1680E00E941E16182F61E042
:10408000809106030E94D3140E941D16812F84750F
:1040900090910B03992309F46FC08435B9F061EE58
:1040A00071E012FD05C081E00E94010C81E006C0B4
:1040B00014FD07C082E00E94010C82E00E94E40B24
:1040C0005BC084E00E94010C84E0F8CF9091FF0374
:1040D0008091FE03981709F44FC0E091FF034091CF
:1040E000E1015091E2016091E3017091E4018FE000
:1040F0008E9FF0011124EC57FC4F40835183628363
:104100007383E091FF039091E5018E9FF0011124EC
:10411000E857FC4F9083E091FF039091E6018E9F5A
:10412000F0011124E757FC4F9083E091FF03909139
:10413000E7018E9FF0011124E657FC4F908380E049
:1041400090E04FE03091FF03FC01EF51FE4F2781DB
:10415000FC01439FE00DF11D1124E557FC4F208326
:1041600001968830910571F78091FF0390E00196E8
:10417000877099278093FF0364E670E080E090E009
:104180000E943F15CE0107960E94651A00E010E0DC
:104190000E94920D882389F00E947915643671057A
:1041A00081059105B8F10E943504E0EFF1E011922C
:1041B000B1E0E93FFB07D9F72DC00E947915C09007
:1041C000FA01D090FB01E090FC01F090FD019B0111
:1041D000AC012C193D094E095F0969017A0131E1F1
:1041E000C31637E2D306E104F104A0F06093FA01AC
:1041F0007093FB018093FC019093FD010E943504B4
:10420000882341F01092FA011092FB011092FC01F8
:104210001092FD010115110509F4BACF0E940000AA
:10422000B7CF1F93CF93DF9380E491E09093260460
:1042300080932504109227041092280410922904D8
:1042400010922A0421E52093FE011092FF01909321
:104250002C0480932B0410922D0410922E041092A3
:104260002F0410923004109209041092080488EE72
:1042700093E0A0E0B0E080930A0490930B04A09335
:104280000C04B0930D048CE491E0909307048093A8
:10429000060410921D0410921C0410921F04109228
:1042A0001E041092210410922004109223041092F4
:1042B0002204609124046E7F6D7F609324046695D0
:1042C000617081E0682783E00E94D31461E083E09D
:1042D0000E940315E1E5F2E0E491E0931604EDE3BA
:1042E000F2E0E491F0E0EE0FFF1FEA5DFD4F8591F3
:1042F0009491909318048093170460E082E00E94E8
:1043000003158091240481FD04C061E082E00E94D5
:10431000D31412E010931204E0E5F2E0E491E0938C
:104320001304ECE3F2E0E491F0E0EE0FFF1FE05D38
:10433000FD4F859194919093150480931404C0E4EB
:10434000D1E0D0930104C0930004109202041092B3
:104350000304109204041092050461E084E00E94BA
:10436000031561E084E00E94D31460E082E00E94C3
:10437000031561E082E00E94D31484E08093060379
:1043800010930703109209031092080310920A0376
:1043900010920B031092FC031092FD031092FE0387
:1043A0001092FF0386E094E09093FB028093FA0260
:1043B0008AE0ECEFF2E0DF011D928A95E9F78DE9E2
:1043C00092E01092A00210929F0248EE53E060E04B
:1043D00070E04093A1025093A2026093A3027093F5
:1043E000A40222E231E030939E0220939D021092BB
:1043F000F7021092F6021092F5021092F40228EFE2
:1044000032E03093AA022093A90221E02093AB026C
:104410001092AD021092AC021092AE021092AF0256
:104420001092B0021092B1021092B2021092B30236
:104430009093FF028093FE02D0939002C0938F026C
:104440001092910210929202109293021092940292
:104450002FEF3FEF30939C0220939B029093010239
:104460008093000210929A0210929902DF91CF91EC
:104470001F9108958CE491E09093070480930604C3
:1044800086E094E00C94A2161F93FC0199278827DC
:10449000BC01E89411911032E9F3193010F01E308C
:1044A000C8F31B3251F01D3249F4689406C00E94D3
:1044B0008622610F711D811D911D119110531A30BB
:1044C000B0F33EF490958095709561957F4F8F4F36
:1044D0009F4F1F910895FB01DC0105900D92002074
:1044E000E1F70895FC0105900020E9F7809590958B
:1044F0008E0F9F1F0895BB274A3031F4992322F471
:10450000BDE2909581959F4F0C949C22592F482F86
:10451000372F262F660F771F881F991F660F771F6B
:10452000881F991F620F731F841F951F660F771FC7
:10453000881F991F0895BB27FB015527AA27880FBD
:10454000991FAA1FA41710F0A41B83955051B9F707
:10455000A05DAA3308F0A95DA193009779F7B11186
:10456000B1931192CB010C94BE2291110C94A12312
:10457000803219F089508550C8F70895DC01FC019C
:10458000672F71917723E1F7329704C07C916D9387
:1045900070836291AE17BF07C8F308950E9410237D
:1045A00008F481E00895E89409C097FB3EF49095E3
:1045B0008095709561957F4F8F4F9F4F9923A9F0FC
:1045C000F92F96E9BB279395F6958795779567958B
:1045D000B795F111F8CFFAF4BB0F11F460FF1BC0CF
:1045E0006F5F7F4F8F4F9F4F16C0882311F096E962
:1045F00011C0772321F09EE8872F762F05C0662310
:1046000071F096E8862F70E060E02AF09A95660FC8
:10461000771F881FDAF7880F9695879597F9089581
:10462000990F0008550FAA0BE0E8FEEF16161706C3
:10463000E807F907C0F012161306E407F50798F02B
:10464000621B730B840B950B39F40A2661F0232B44
:10465000242B252B21F408950A2609F4A140A695C0
:104660008FEF811D811D08950E9447230C94BB2369
:104670000E94AD2338F00E94B42320F0952311F05E
:104680000C94A4230C94AA2311240C94EF230E94CD
:10469000CC2370F3959FC1F3950F50E0551F629F97
:1046A000F001729FBB27F00DB11D639FAA27F00D8B
:1046B000B11DAA1F649F6627B00DA11D661F829FB2
:1046C0002227B00DA11D621F739FB00DA11D621F97
:1046D000839FA00D611D221F749F3327A00D611DB4
:1046E000231F849F600D211D822F762F6A2F112496
:1046F0009F5750409AF0F1F088234AF0EE0FFF1FC9
:10470000BB1F661F771F881F91505040A9F79E3F1F
:10471000510580F00C94A4230C94EF235F3FE4F345
:10472000983ED4F3869577956795B795F795E79575
:104730009F5FC1F7FE2B880F911D9695879597F97E
:10474000089599278827089597F99F6780E870E072
:1047500060E008959FEF80EC089500240A941616F7
:10476000170618060906089500240A94121613065F
:10477000140605060895092E0394000C11F48823ED
:1047800052F0BB0F40F4BF2B11F460FF04C06F5F09
:104790007F4F8F4F9F4F089557FD9058440F551FDF
:1047A00059F05F3F71F04795880F97FB991F61F0B3
:1047B0009F3F79F087950895121613061406551F2A
:1047C000F2CF4695F1DF08C0161617061806991F96
:1047D000F1CF86957105610508940895E894BB278B
:1047E00066277727CB0197F908952F923F924F9232
:1047F0005F926F927F928F929F92AF92BF92CF9271
:10480000DF92EF92FF920F931F93CF93DF93CDB779
:10481000DEB7CA1BDB0B0FB6F894DEBF0FBECDBFF1
:1048200009942A88398848885F846E847D848C84C2
:104830009B84AA84B984C884DF80EE80FD800C81CB
:104840001B81AA81B981CE0FD11D0FB6F894DEBFAE
:104850000FBECDBFED0108955058BB27AA270E9477
:1048600044240C94BB230E94AD2338F00E94B4234F
:1048700020F039F49F3F19F426F40C94AA230EF487
:10488000E095E7FB0C94A423E92F0E94CC2358F376
:10489000BA17620773078407950720F079F4A6F525
:1048A0000C94EE230EF4E0950B2EBA2FA02D0B01E5
:1048B000B90190010C01CA01A0011124FF27591B65
:1048C00099F0593F50F4503E68F11A16F040A22F6B
:1048D000232F342F4427585FF3CF469537952795DC
:1048E000A795F0405395C9F77EF41F16BA0B620BDB
:1048F000730B840BBAF09150A1F0FF0FBB1F661F22
:10490000771F881FC2F70EC0BA0F621F731F841F64
:1049100048F4879577956795B795F7959E3F08F08A
:10492000B0CF9395880F08F09927EE0F979587954C
:1049300008950E94AD240C94BB230E94B42358F028
:104940000E94AD2340F029F45F3F29F00C94A4238A
:1049500051110C94EF230C94AA230E94CC2368F3EA
:104960009923B1F3552391F3951B550BBB27AA2728
:1049700062177307840738F09F5F5F4F220F331F62
:10498000441FAA1FA9F335D00E2E3AF0E0E832D02A
:1049900091505040E695001CCAF72BD0FE2F29D02D
:1049A000660F771F881FBB1F261737074807AB07FF
:1049B000B0E809F0BB0B802DBF01FF2793585F4F74
:1049C0003AF09E3F510578F00C94A4230C94EF2309
:1049D0005F3FE4F3983ED4F3869577956795B79556
:1049E000F7959F5FC9F7880F911D9695879597F961
:1049F0000895E1E0660F771F881FBB1F62177307DA
:104A00008407BA0720F0621B730B840BBA0BEE1FEE
:104A100088F7E09508950E9412256894B1110C94CE
:104A2000EF2308950E94D42388F09F5798F0B92F60
:104A30009927B751B0F0E1F0660F771F881F991FD3
:104A40001AF0BA95C9F714C0B13091F00E94EE2364
:104A5000B1E008950C94EE23672F782F8827B85F74
:104A600039F0B93FCCF3869577956795B395D9F72B
:104A70003EF490958095709561957F4F8F4F9F4F35
:104A800008950E94102308F48FEF089597FB072ED6
:104A900016F4009407D077FD09D00E947C2507FC0E
:104AA00005D03EF4909581959F4F0895709561953E
:104AB0007F4F0895A1E21A2EAA1BBB1BFD010DC05A
:104AC000AA1FBB1FEE1FFF1FA217B307E407F507BE
:104AD00020F0A21BB30BE40BF50B661F771F881F9A
:104AE000991F1A9469F760957095809590959B0130
:104AF000AC01BD01CF010895AA1BBB1B51E107C04A
:104B0000AA1FBB1FA617B70710F0A61BB70B881F5D
:104B1000991F5A95A9F780959095BC01CD010895EC
:104B2000EE0FFF1F0590F491E02D0994CF93DF93D2
:104B30008230910510F482E090E0E0917C04F091E5
:104B40007D0420E030E0C0E0D0E0309711F14081FA
:104B5000518148175907C0F04817590761F48281FD
:104B60009381209719F09B838A832BC090937D04B7
:104B700080937C0426C02115310519F04217530794
:104B800018F49A01BE01DF01EF010280F381E02DEC
:104B9000DCCF2115310509F1281B390B24303105F3
:104BA00090F412968D919C9113976115710521F0E7
:104BB000FB019383828304C090937D0480937C04E3
:104BC000FD01329644C0FD01E20FF31F81939193E2
:104BD000225031092D933C933AC020917A043091B0
:104BE0007B04232B41F4209108013091090130937B
:104BF0007B0420937A04209106013091070121154E
:104C0000310541F42DB73EB740910A0150910B0197
:104C1000241B350BE0917A04F0917B04E217F30733
:104C2000A0F42E1B3F0B2817390778F0AC014E5F1C
:104C30005F4F2417350748F04E0F5F1F50937B04DA
:104C400040937A048193919302C0E0E0F0E0CF01B9
:104C5000DF91CF9108950F931F93CF93DF93009728
:104C600009F48CC0FC0132971382128200917C04FB
:104C700010917D040115110581F420813181820F8D
:104C8000931F20917A0430917B042817390779F516
:104C9000F0937B04E0937A0471C0D80140E050E0C7
:104CA000AE17BF0750F412962D913C911397AD01AA
:104CB0002115310509F1D901F3CF9D01DA013383C3
:104CC000228360817181860F971F8217930769F491
:104CD000EC0128813981260F371F2E5F3F4F31832A
:104CE00020838A819B8193838283452B29F4F093CF
:104CF0007D04E0937C0442C01396FC93EE931297DC
:104D0000ED01499159919E01240F351FE217F307D8
:104D100071F480819181840F951F029611969C9366
:104D20008E938281938113969C938E931297E0E0E9
:104D3000F0E0D80112968D919C911397009719F08D
:104D4000F8018C01F6CF8D919C9198012E5F3F4F19
:104D5000820F931F20917A0430917B042817390722
:104D600069F4309729F410927D0410927C0402C0FB
:104D70001382128210937B0400937A04DF91CF9107
:104D80001F910F910895A0E0B0E0E9ECF6E20C94D9
:104D9000F923EC01009721F4CB010E949625B8C0BD
:104DA000FC01E60FF71F9C0122503109E217F307BF
:104DB00008F4ACC0D9010D911C9111970617170783
:104DC000B0F00530110508F49FC0C801049786179C
:104DD000970708F499C002501109061B170B01939D
:104DE00011936D937C93CF010E942B268DC05B01A4
:104DF000A01AB10A4C01800E911EA0917C04B091C2
:104E00007D0440E050E0E12CF12C109709F44AC0F9
:104E1000A815B905D1F56D907C901197630182E0DA
:104E2000C80ED11CCA14DB0480F1A3014A195B0926
:104E30006A0182E0C80ED11C1296BC90129713969C
:104E4000AC91B5E0CB16D10440F0B282A38351837C
:104E50004083D9016D937C930AC00E5F1F4FC3013D
:104E6000800F911FF90191838083EB2DFA2FE114BC
:104E7000F10431F0D7011396FC93EE93129744C0DE
:104E8000F0937D04E0937C043FC08D919C91119739
:104E90004817590708F4AC017D0112960D90BC919A
:104EA000A02DB3CF80917A0490917B048815990549
:104EB000E1F446175707C8F4809106019091070165
:104EC000009741F48DB79EB740910A0150910B01B4
:104ED000841B950BE817F907C8F4F0937B04E09363
:104EE0007A04F901718360830FC0CB010E9496257B
:104EF0007C01009759F0A801BE010E949227CE01C3
:104F00000E942B26C70104C0CE0102C080E090E0C1
:104F1000CDB7DEB7EEE00C94152481E090E0F89474
:104F20000C94E227FB01DC0102C001900D9241507C
:104F30005040D8F708956817790768F4FB01DC0141
:104F4000E40FF51FA40FB51F02C002900E9241504E
:104F50005040D8F708950C949227FC018191861750
:104F600021F08823D9F7992708953197CF01089523
:104F7000FB01DC018D91019080190110D9F3990B8F
:104F80000895FB01DC0101900D920020E1F70895E6
:104F9000FB0151915523A9F0BF01DC014D9145174B
:104FA0004111E1F759F4CD010190002049F04D91F4
:104FB00040154111C9F3FB014111EFCF81E090E0B1
:104FC0000197089511E0C2E8D1E004C0FE010E94FB
:0E4FD00090252196C338D107C9F7F894FFCF7A
:104FDE000100BB13BB1300007E04800000044D5182
:104FEE005454040000496E7465726E6574000000BE
:104FFE000000AD0FC70FC40FCB01C911910F8E0F5B
:10500E005912BC1250102D12BA01AD010000000051
:10501E00621400000000A81400000000D5136417ED
:10502E00C40FD41329144114BC13415400536D61A1
:10503E007274506F776572204D515454204D6F73BA
:10504E0071756974746F2074657374004D6F647537
:10505E006C2074656C656D65747269692075727506
:10506E0063686F6D696F6E7900536D617274506F06
:10507E007765722F646562756700536D6172745047
:10508E006F7765722F64616E65000D0A4F4B0D0AC6
:10509E00002000746573742E6D6F7371756974746E
:0850AE006F2E6F7267002E00E7
:107E0000112484B714BE81FFF0D085E080938100F7
:107E100082E08093C00088E18093C10086E0809377
:107E2000C20080E18093C4008EE0C9D0259A86E02C
:107E300020E33CEF91E0309385002093840096BBD3
:107E4000B09BFECF1D9AA8958150A9F7CC24DD24C4
:107E500088248394B5E0AB2EA1E19A2EF3E0BF2EE7
:107E6000A2D0813461F49FD0082FAFD0023811F036
:107E7000013811F484E001C083E08DD089C08234E0
:107E800011F484E103C0853419F485E0A6D080C0E4
:107E9000853579F488D0E82EFF2485D0082F10E0AE
:107EA000102F00270E291F29000F111F8ED06801E7
:107EB0006FC0863521F484E090D080E0DECF843638
:107EC00009F040C070D06FD0082F6DD080E0C81688
:107ED00080E7D80618F4F601B7BEE895C0E0D1E017
:107EE00062D089930C17E1F7F0E0CF16F0E7DF06D8
:107EF00018F0F601B7BEE89568D007B600FCFDCFD4
:107F0000A601A0E0B1E02C9130E011968C91119780
:107F100090E0982F8827822B932B1296FA010C0160
:107F200087BEE89511244E5F5F4FF1E0A038BF0790
:107F300051F7F601A7BEE89507B600FCFDCF97BE46
:107F4000E89526C08437B1F42ED02DD0F82E2BD052
:107F50003CD0F601EF2C8F010F5F1F4F84911BD097
:107F6000EA94F801C1F70894C11CD11CFA94CF0C13
:107F7000D11C0EC0853739F428D08EE10CD085E9AC
:107F80000AD08FE07ACF813511F488E018D01DD067
:107F900080E101D065CF982F8091C00085FFFCCF94
:107FA0009093C60008958091C00087FFFCCF809118
:107FB000C00084FD01C0A8958091C6000895E0E648
:107FC000F0E098E1908380830895EDDF803219F02E
:107FD00088E0F5DFFFCF84E1DECF1F93182FE3DFCA
:107FE0001150E9F7F2DF1F91089580E0E8DFEE27F6
:047FF000FF270994CA
:027FFE00040479
:0400000300007E007B
:00000001FF