:100000000C9462000C94A4090C947D090C948A0051
:100010000C948A000C948A000C948A000C948A0038
:100020000C948A000C948A000C948A000C948A0028
:100030000C948A000C948A000C948A000C948A0018
:100040000C9433090C948A000C9401090C94DB087D
:100050000C948A000C948A000C948A000C948A00F8
:100060000C948A000C948A000000000025002800EF
:100070002B0000000000240027002A0000000000E0
:1000800023002600290004040404040404040202DA
:100090000202020203030303030301020408102007
:1000A0004080010204081020010204081020000012
:1000B0000008000201000003040700000000000027
:1000C0000000CB0911241FBECFEFD8E0DEBFCDBFAB
:1000D00011E0A0E0B1E0ECECFDE102C005900D9272
:1000E000AC3DB107D9F723E0ACEDB1E001C01D9202
:1000F000A239B207E1F710E0C2E6D0E004C02197D0
:10010000FE010E94D90EC136D107C9F70E94320AFA
:100110000C94E40E0C940000CF92DF92EF92FF92C9
:100120000F931F93CF93DF936C017A018B01C0E093
:10013000D0E0CE15DF0589F0D8016D918D01D60193
:10014000ED91FC910190F081E02DC6010995892B7C
:1001500011F47E0102C02196ECCFC701DF91CF914F
:100160001F910F91FF90EF90DF90CF900895089529
:1001700080E090E00895FC01538D448D252F30E000
:10018000842F90E0821B930B541710F0CF960895A4
:1001900001970895FC01918D828D981761F0828DF1
:1001A000DF01A80FB11D5D968C91928D9F5F9F73AB
:1001B000928F90E008958FEF9FEF0895FC01918D4D
:1001C000828D981731F0828DE80FF11D858D90E0BA
:1001D00008958FEF9FEF0895FC01918D228D892F57
:1001E00090E0805C9F4F821B91098F73992708953F
:1001F00081EF91E00E94EC0021E0892B09F420E0DE
:10020000822F0895FC01848DDF01A80FB11DA35A30
:10021000BF4F2C91848D90E001968F739927848F26
:10022000A689B7892C93A089B1898C9180648C931D
:10023000938D848D981306C00288F389E02D808108
:100240008F7D80830895EF92FF920F931F93CF933A
:10025000DF93EC0181E0888F9B8D8C8D981305C016
:10026000E889F989808185FD24C0F62E0B8D10E088
:100270000F5F1F4F0F731127E02E8C8DE8120CC0FB
:100280000FB607FCFACFE889F989808185FFF5CFA1
:10029000CE010E940201F1CF8B8DFE01E80FF11D0E
:1002A000E35AFF4FF0820B8FEA89FB8980818062DD
:1002B00007C0EE89FF896083E889F98980818064BD
:1002C000808381E090E0DF91CF911F910F91FF90AB
:1002D000EF900895CF93DF93EC01888D8823C9F0C8
:1002E000EA89FB89808185FD05C0A889B9898C913F
:1002F00086FD0FC00FB607FCF5CF808185FFF2CFDA
:10030000A889B9898C9185FFEDCFCE010E940201A9
:10031000E7CFDF91CF91089580E090E0892B29F01D
:100320000E94F80081110C9400000895833081F040
:1003300028F4813099F08230A1F008958730A9F037
:100340008830B9F08430D1F4809180008F7D03C073
:10035000809180008F7780938000089584B58F7797
:1003600002C084B58F7D84BD08958091B0008F77E1
:1003700003C08091B0008F7D8093B00008951F93DB
:10038000CF93DF93282F30E0F901E255FF4F84919E
:10039000F901E656FF4FD491F901EA57FF4FC49196
:1003A000CC23C9F0162F81110E949601EC2FF0E0AA
:1003B000EE0FFF1FE859FF4FA591B4918FB7F89446
:1003C000111105C09C91ED2FE095E92302C0EC913D
:1003D000ED2BEC938FBFDF91CF911F910895CF93B9
:1003E000DF9390E0FC01E656FF4F2491FC01EA57B1
:1003F000FF4F8491882361F190E0880F991FFC01E1
:10040000EE58FF4FC591D491FC01E859FF4FA591DB
:10041000B491611109C09FB7F89488812095822317
:100420008883EC912E230BC0623061F49FB7F8945F
:100430003881822F809583238883EC912E2B2C93F7
:100440009FBF06C08FB7F894E8812E2B28838FBFFB
:10045000DF91CF9108953FB7F8948091DD0190919D
:10046000DE01A091DF01B091E00126B5A89B05C097
:100470002F3F19F00196A11DB11D3FBFBA2FA92F23
:10048000982F8827820F911DA11DB11DBC01CD01A0
:1004900042E0660F771F881F991F4A95D1F708958C
:1004A0008F929F92AF92BF92CF92DF92EF92FF9284
:1004B0006B017C010E942B024B015C01C114D10431
:1004C000E104F104F1F00E942B02DC01CB01881958
:1004D0009909AA09BB09883E9340A105B10570F3AB
:1004E00021E0C21AD108E108F10888EE880E83E005
:1004F000981EA11CB11CC114D104E104F10419F728
:10050000DDCFFF90EF90DF90CF90BF90AF909F90A6
:100510008F900895089508958EBD00000DB407FED4
:10052000FDCF8EB508958CBD9DBD08951F93CF93CB
:10053000DF93182F80918E0290918F020E94930278
:10054000C8E9D2E060E088810E94BF0183E00E9498
:100550008C02812F0E948C0280E00E948C02182F56
:1005600061E088810E94BF01812FDF91CF911F91AF
:100570000895CF93C82F80918E0290918F020E9490
:10058000930260E0809198020E94BF0185E00E9482
:100590008C028FE00E948C0280EE0E948C028C2FD5
:1005A0000E948C0261E0809198020E94BF016AE083
:1005B00070E080E090E00E9450028EE00E9496027F
:1005C000982F9C2381E09C1380E0CF9108950F9396
:1005D0001F93CF93DF93082F162F80918E02909157
:1005E0008F020E949302C8E9D2E060E088810E94F5
:1005F000BF0182E00E948C02802F0E948C02812F1A
:100600000E948C0261E08881DF91CF911F910F9150
:100610000C94BF012F923F924F925F926F927F9204
:100620008F929F92AF92BF92CF92DF92EF92FF9202
:100630000F931F93CF93DF93CDB7DEB72E970FB6EF
:10064000F894DEBF0FBECDBF6B017C012A8780917D
:100650008E0290918F024C870E94930260E08091FD
:1006600098020E94BF0180EC0E948C0261E08091A0
:1006700098020E94BF0160E08BE20E94E70260E006
:1006800080E30E94E70260E080E40E94E70260E00D
:1006900080E50E94E7024C85642F70E080E090E0E6
:1006A0000E94950D20E034E244E759E40E944A0E8E
:1006B0006E837F8388879987C701B6010E94930D57
:1006C0006B017C0120E030E44CE955E40E94450ECA
:1006D000181654F42FE632E143E85AE3C701B60195
:1006E0000E944A0E6B017C0120E030E04AE754E4AE
:1006F000C701B6010E944A0E9B01AC0160E070E0A8
:1007000080E89FE30E94EB0C2B013C011E861D86B6
:100710002AE02D83212C312C00E211E43D853B871A
:100720008D859E8501969E878D87BC01990F880BCC
:10073000990B0E94950D9B01AC010E947A0C2E81B1
:100740003F81488559850E94EB0C9B01AC01C30198
:10075000B2010E94EB0C6B017C010E945D0D69836C
:100760007A838B839C8369817A817727072E000C9B
:10077000880B990B0E94950D9B01AC01C701B60136
:100780000E94790CD62EE72EF82EC92E9101A801D1
:100790000E94E60C87FF13C089818850813178F46C
:1007A0002981622F70E080E090E00E94930D4B0160
:1007B0005C013B853D832D2C3E2C0F2D1C2D8D8502
:1007C0009E85CF9709F0AACFC501B4010E94640DA0
:1007D000F62E70E080E090E00E94950D23E333E375
:1007E00043E35FE30E944A0E0E94640D862F90E06F
:1007F0008C010150110917FD8C0115950795615069
:10080000E62EE01ADF2CD61A8FEF8D0DF12CA80101
:100810004E0D5F1D282F30E0421753079CF18230A8
:1008200088F16D818AE20E94E7026FEF600F6068D5
:1008300091E0E91AF10883E0EE0CFF1C8A95E1F7DC
:100840006E2989E20E94E7026EEF6D0D606888E212
:100850000E94E70260E08DE00E94E7022A852111F4
:1008600002C080E001C080E60E94B902882351F0F6
:100870006FEF8BE20E94E7028AE20E94960291E00B
:100880003D81831390E0892F2E960FB6F894DEBF3A
:100890000FBECDBFDF91CF911F910F91FF90EF90D1
:1008A000DF90CF90BF90AF909F908F907F906F9090
:1008B0005F904F903F902F900895BF92CF92DF921C
:1008C000EF92FF920F931F93CF93DF936B017C0105
:1008D000142F611571058105910599F020E00E94A2
:1008E0000A03811103C080E090E062C0D0929B02B5
:1008F000C0929A0210939C0281E080939D02C601EF
:1009000057C095E0C92ED12CE12CF12CE60121E055
:10091000412FC701B6010E940A03882349F160E014
:100920008CE20E94E70264EF71E080E090E00E94B8
:1009300050022091990230E0F901E255FF4F849175
:10094000F901E656FF4FB490F901EA57FF4F0491C1
:100950000023E1F081110E949601E02FF0E0EE0FFC
:10096000FF1FE458FF4FA591B491EC91EB2171F07A
:1009700085E0C80ED11CE11CF11C88EEC81683E08E
:10098000D806E104F10409F0C1CFADCF8CE20E949A
:10099000960287FDEDCF80E00E94B902D0939B02C2
:1009A000C0939A0210939C0281E080939D02CE0135
:1009B000DF91CF911F910F91FF90EF90DF90CF903B
:1009C000BF9008951F93CF93DF93182F80918E02CD
:1009D00090918F020E949302C8E9D2E060E0888182
:1009E0000E94BF01812F80680E948C0261E0888193
:1009F000DF91CF911F910C94BF01AF92BF92DF9214
:100A0000EF92FF920F931F93CF93DF931F92CDB777
:100A1000DEB7282F5B01813009F420E0F5018581E4
:100A200040815181628173818823E1F0DB01CA0139
:100A3000F3E0880F991FAA1FBB1FFA95D1F7EB2E81
:100A4000DB01CA011BE0880F991FAA1FBB1F1A9563
:100A5000D1F79B2F907E162F13701860192BF52E4F
:100A6000D42E15C0DB01CA0135E1880F991FAA1FDA
:100A7000BB1F3A95D1F7EB2EEDE1440F551F661FD2
:100A8000771FEA95D1F7172F107ED12CF12CF501A5
:100A9000068184818111006480918E0290918F0281
:100AA00029830E94930260E0809198020E94BF0116
:100AB0002981822F80640E948C028E2D0E948C02DC
:100AC000812F0E948C028F2D0E948C028D2D0E94FE
:100AD0008C02802F0E948C027501F7E0EF0EF11C52
:100AE00000E010E0F501868190E00817190744F452
:100AF000F70181917F010E948C020F5F1F4FF2CF9F
:100B000061E0809198020F90DF91CF911F910F913A
:100B1000FF90EF90DF90BF90AF900C94BF01AF9229
:100B2000BF92CF92DF92EF92FF920F931F93CF93DA
:100B3000DF931F92CDB7DEB75C01162F80918E0236
:100B400090918F020E94930260E0809198020E942F
:100B5000BF01812F880F80690E948C0280E00E9473
:100B60008C02F82E80E00E948C02582F80E059837E
:100B70000E948C02082F80E00E948C02182F80E0D7
:100B80000E948C02982F5981E52FE870D5011596A7
:100B9000EC9315972F2D30E0652F70E0EE23D1F107
:100BA0005370690185E0CC0CDD1C8A95E1F7F601F4
:100BB000E52BAF01E5E075956795EA95E1F7660FDE
:100BC000771F660F771F462B572B6A01550FEE08CC
:100BD000FF0883E0359527958A95E1F7A901330F42
:100BE000660B770B762F652F542F44274C295D29F0
:100BF0006E297F29762F652F542F4427402B762F7F
:100C0000652F542F4427412B4D935D936D937C9317
:100C100013971FC085E0759567958A95E1F7A9013F
:100C2000E3E0440F551FEA95E1F7462B572BF5E01B
:100C300035952795FA95E1F7322F2227422B532B32
:100C4000052E000C660B770BF50140835183628300
:100C50007383892F8074D50114968C9314979F7099
:100C600016969C936501B7E0CB0ED11CE12CF12CBC
:100C7000092F10E0E016F10654F480E00E948C0287
:100C8000F60181936F01FFEFEF1AFF0AF3CF61E0E6
:100C9000809198020E94BF01C5010F90DF91CF9112
:100CA0001F910F91FF90EF90DF90CF90BF90AF908A
:100CB0000895EF92FF920F931F93CF93DF931F92AC
:100CC000CDB7DEB7082F162F80918E0290918F023C
:100CD00079830E94930260E0809198020E94BF0194
:100CE00082E00E948C02802F0E948C02E12E79818A
:100CF000F72E87010C5F1F4FF70181917F010E9442
:100D00008C02E016F106C1F761E0809198020F9025
:100D1000DF91CF911F910F91FF90EF900C94BF0145
:100D20000F931F93CF93DF93CDB7DEB728970FB6FE
:100D3000F894DEBF0FBECDBF082F8EE04D835E83DB
:100D40006F8378870E949602182F80E80E94B9026C
:100D50004D815E816F817885DB01CA0125E1880FB5
:100D6000991FAA1FBB1F2A95D1F7B9833DE1440FF4
:100D7000551F661F771F3A95D1F7872F807E8A838C
:100D80001B821C82BE016F5F7F4F802F0E9459061D
:100D9000812F0E94B90228960FB6F894DEBF0FBECD
:100DA000CDBFDF91CF911F910F9108950F931F93A6
:100DB000CF93DF93CDB7DEB728970FB6F894DEBF99
:100DC0000FBECDBF082F8EE04D835E836F83788783
:100DD0000E949602182F80E80E94B9024D815E8120
:100DE0006F817885DB01CA0125E1880F991FAA1F51
:100DF000BB1F2A95D1F7B9833DE1440F551F661FEC
:100E0000771F3A95D1F7872F807E8A831B821C82B9
:100E1000BE016F5F7F4F802F0E945906812F0E9475
:100E2000B90228960FB6F894DEBF0FBECDBFDF9192
:100E3000CF911F910F9108951F93CF93DF93CDB75B
:100E4000DEB72F970FB6F894DEBF0FBECDBF8CE292
:100E50000E949602182F60E08CE20E94E70210FFC9
:100E60004CC060E0CE0101960E948F0549815A81F5
:100E70006B817C813D812E818F81E0918F039FE08A
:100E80009E9FF0011124E856FD4F468357836087EB
:100E90007187E0918F039E9FF0011124E856FD4F6A
:100EA0003287E0918F039E9FF0011124E856FD4F99
:100EB0002387E0918F039E9FF0011124E856FD4F98
:100EC0008487DE01189680E090E04FE030918F0338
:100ED0002D91FC01439FE00DF11D1124E856FD4FBB
:100EE000258701968830910589F780918F0390E0DE
:100EF00001968770992780938F0311FF4CC062E0A1
:100F0000CE0101960E948F0549815A816B817C81B7
:100F10003D812E818F81E0918F039FE09E9FF001A4
:100F20001124E856FD4F4683578360877187E0910F
:100F30008F039E9FF0011124E856FD4F3287E09108
:100F40008F039E9FF0011124E856FD4F2387E09107
:100F50008F039E9FF0011124E856FD4F8487DE0128
:100F6000189680E090E04FE030918F032D91FC01C6
:100F7000439FE00DF11D1124E856FD4F2587019692
:100F80008830910589F780918F0390E001968770F2
:100F9000992780938F0312FF1CC09091900380913A
:100FA00091039817B1F0609190038FE0689FB001B2
:100FB00011246A5E7C4F81E00E94FD0481E00E9462
:100FC000E2048091900390E00196877099278093C6
:100FD000900313FF1CC09091900380919103981788
:100FE000B1F0609190038FE0689FB00111246A5EB8
:100FF0007C4F82E00E94FD0482E00E94E204809126
:10100000900390E00196877099278093900314FFD6
:101010001CC090919003809191039817B1F060915A
:1010200090038FE0689FB00111246A5E7C4F84E0DA
:101030000E94FD0484E00E94E2048091900390E00D
:101040000196877099278093900315FF18C08091AF
:101050009D028130A1F410929D0210928E03109295
:101060008F03109290031092910340919C02609123
:101070009A0270919B0280E090E00E945D0417FF4D
:1010800018C080919D028130A1F410929D021092AF
:101090008E0310928F03109290031092910340914F
:1010A0009C0260919A0270919B0280E090E00E9405
:1010B0005D0490918E0380918F03981709F44FC0BF
:1010C000E0918E038FE08E9FF0011124E856FD4FD2
:1010D00046815781608571854093E2015093E30119
:1010E0006093E4017093E501E0918E038E9FF0011F
:1010F0001124E856FD4F92859093E601E0918E030E
:101100008E9FF0011124E856FD4F93859093E701DF
:10111000E0918E038E9FF0011124E856FD4F8485E7
:101120008093E80180E090E03FE020918E03FC0195
:10113000329FE00DF11D1124E856FD4F2585FC017D
:10114000EE51FE4F278301968830910571F780910B
:101150008E0390E001968770992780938E032F96D7
:101160000FB6F894DEBF0FBECDBFDF91CF911F91B8
:101170000895009769F0FC0101900020E9F731978C
:10118000AF01481B590BBC0181EF91E00C948C001E
:1011900080E090E00895CF93DF930E94B908EC01BE
:1011A00086E191E00E94B9088C0F9D1FDF91CF91DD
:1011B00008950E94DF0E1F920F920FB60F92112416
:1011C0002F933F934F935F936F937F938F939F934F
:1011D000AF93BF93EF93FF9381EF91E00E940201E1
:1011E000FF91EF91BF91AF919F918F917F916F91FF
:1011F0005F914F913F912F910F900FBE0F901F90D5
:1012000018951F920F920FB60F9211242F938F9360
:101210009F93EF93FF93E0910102F091020280818E
:10122000E0910702F091080282FD12C09081809146
:101230000A028F5F8F7320910B02821751F0E091A9
:101240000A02F0E0EF50FE4F958F80930A0201C032
:101250008081FF91EF919F918F912F910F900FBE01
:101260000F901F9018951F920F920FB60F92112496
:101270002F933F938F939F93AF93BF93809190024F
:1012800090919102A0919202B09193023091DC0171
:1012900023E0230F2D3720F40196A11DB11D05C0B9
:1012A00026E8230F0296A11DB11D2093DC01809337
:1012B000900290939102A0939202B0939302809136
:1012C000DD019091DE01A091DF01B091E001019676
:1012D000A11DB11D8093DD019093DE01A093DF017C
:1012E000B093E001BF91AF919F918F913F912F916A
:1012F0000F900FBE0F901F9018951F920F920FB670
:101300000F9211242F933F934F935F936F937F938B
:101310008F939F93AF93BF93EF93FF93E09102015D
:10132000F09103010995FF91EF91BF91AF919F91CA
:101330008F917F916F915F914F913F912F910F907E
:101340000FBE0F901F9018951F920F920FB60F921D
:1013500011242F933F934F935F936F937F938F93BA
:101360009F93AF93BF93EF93FF93E0910001F091B0
:1013700001010995FF91EF91BF91AF919F918F91DD
:101380007F916F915F914F913F912F910F900FBE81
:101390000F901F901895E1EFF1E01382128288EE12
:1013A00093E0A0E0B0E084839583A683B78388E0D0
:1013B00091E09183808385EC90E09587848784EC2D
:1013C00090E09787868780EC90E0918B808B81EC12
:1013D00090E0938B828B82EC90E0958B848B86ECF3
:1013E00090E0978B868B118E128E138E148EEEE802
:1013F000F2E081E58083118261E084E00E94EF01E8
:1014000061E084E00E94BF0160E082E00E94EF01A1
:1014100061E082E00E94BF01E8E9F2E084E08083BD
:1014200082E08183138212821482158210928E03CD
:1014300010928F0310929003109291032FB7F8949B
:101440008091900290919102A0919202B0919302AA
:101450002FBF8093940290939502A0939602B0932D
:1014600097020895CF93DF93CDB7DEB7A1970FB65C
:10147000F894DEBF0FBECDBF789484B5826084BD82
:1014800084B5816084BD85B5826085BD85B5816088
:1014900085BD80916E00816080936E001092810006
:1014A00080918100826080938100809181008160C1
:1014B0008093810080918000816080938000809182
:1014C000B10084608093B1008091B000816080930E
:1014D000B00080917A00846080937A0080917A00D5
:1014E000826080937A0080917A00816080937A0094
:1014F00080917A00806880937A001092C100E09118
:101500000102F091020282E08083E091FD01F091FE
:10151000FE011082E091FF01F091000280E18083E2
:1015200010920902E0910502F091060286E08083A4
:10153000E0910302F0910402808180618083E09158
:101540000302F0910402808188608083E0910302AD
:10155000F0910402808180688083E0910302F09121
:10156000040280818F7D808389E191E00E94CB0815
:1015700083E391E00E94CB088CB58C7F8CBD8DB548
:1015800081608DBD8CB5837F8CBD8CB58F7D8CBD0E
:101590001FB7F8948091E101811127C0E0E9F0E0E4
:1015A0008491E4EAF0E09491E82FF0E0EE0FFF1F61
:1015B000EE58FF4FA591B491EC91E92321F461E03D
:1015C0008AE00E94BF0161E08AE00E94EF018CB5D1
:1015D00080618CBD8CB580648CBD61E08DE00E9423
:1015E000EF0161E08BE00E94EF018091E1018F5FEC
:1015F0008093E1011FBF48E06AEF70E080E090E077
:101600000E945D04892B19F084E491E002C088E512
:1016100091E00E94CB080CE117E0109301010093C8
:101620000001809169008C7F826080936900E89A54
:101630004FEF57E060E070E080E20E94D6064FEF87
:1016400057E060E070E084E20E94D6064FEF57E07A
:1016500060E070E080E00E9490064FEF57E060E0AD
:1016600070E084E00E9490064FEF57E060E070E089
:1016700088E00E9490064FEF57E060E070E080E164
:101680000E9490064FEF57E060E070E084E10E9416
:1016900090064FEF57E060E070E088E10E9490060E
:1016A00040E050E0BA0180E20E94D60640E051E0FE
:1016B00060E070E080E00E949006109301010093CA
:1016C0000001809169008C7F826080936900E89AB4
:1016D00080E791E00E94CB088AE891E00E94CB0865
:1016E00064E670E080E090E00E94500288EA91E0B9
:1016F0000E94CB0889E7882E85E0982EA12CB12C7A
:101700000EE19AE0492E512C612C712C6E012DE1D5
:10171000C20ED11C1FE02FB7F894809190029091D7
:101720009102A0919202B09193022FBF4091940236
:10173000509195026091960270919702841B950BCF
:10174000A60BB70B883E9340A105B10508F4CEC0A7
:101750002FB7F8948091900290919102A0919202FB
:10176000B09193022FBF8093940290939502A0931F
:101770009602B09397021092E6018092E201909255
:10178000E301A092E401B092E5010093E90119A2FE
:10179000CE0181967C0129E735E040E050E0CA01A6
:1017A000B901A30192010E94B70E80E3860FF701F1
:1017B00082937F01EC15FD0591F7C6010E94B908DF
:1017C00086E191E00E94B90880918E0290918F028B
:1017D0000E94930260E0809198020E94BF0180EA1B
:1017E0000E948C0280E00E948C02F82E61E08091C1
:1017F00098020E94BF0180919D02882309F470C065
:101800008F2D84758435B9F062EE71E0F2FC05C06D
:1018100081E00E94FD0481E006C0F4FC07C082E084
:101820000E94FD0482E00E94E2045AC084E00E940B
:10183000FD0484E0F8CF9091910380919003981774
:1018400009F44EC0E09191038091E2019091E3018F
:10185000A091E401B091E5011E9FF0011124EA5E20
:10186000FC4F80839183A283B383E09191038091A5
:10187000E6011E9FF0011124E65EFC4F8083E0919B
:1018800091038091E7011E9FF0011124E55EFC4F5A
:101890008083E09191038091E8011E9FF001112463
:1018A000E45EFC4F808380E090E030919103FC0186
:1018B000EE51FE4F2781FC01139FE00DF11D112415
:1018C000E35EFC4F208301968830910571F74091CB
:1018D000910350E04F5F5F4F47705527409391034E
:1018E00064E670E080E090E00E9450020E948C016B
:1018F00012CF5058BB27AA270E94910C0C940B0EB4
:101900000E94FD0D38F00E94040E20F039F49F3F34
:1019100019F426F40C94FA0D0EF4E095E7FB0C9400
:10192000F40DE92F0E941C0E58F3BA1762077307D3
:101930008407950720F079F4A6F50C943E0E0EF47A
:10194000E0950B2EBA2FA02D0B01B90190010C01CF
:10195000CA01A0011124FF27591B99F0593F50F4E7
:10196000503E68F11A16F040A22F232F342F44273F
:10197000585FF3CF469537952795A795F040539537
:10198000C9F77EF41F16BA0B620B730B840BBAF007
:101990009150A1F0FF0FBB1F661F771F881FC2F772
:1019A0000EC0BA0F621F731F841F48F48795779586
:1019B0006795B795F7959E3F08F0B0CF9395880F40
:1019C00008F09927EE0F9795879508950E94D00DFE
:1019D00008F481E008950E94FF0C0C940B0E0E9405
:1019E000040E58F00E94FD0D40F029F45F3F29F0ED
:1019F0000C94F40D51110C943F0E0C94FA0D0E94AE
:101A00001C0E68F39923B1F3552391F3951B550BE5
:101A1000BB27AA2762177307840738F09F5F5F4FC1
:101A2000220F331F441FAA1FA9F335D00E2E3AF000
:101A3000E0E832D091505040E695001CCAF72BD018
:101A4000FE2F29D0660F771F881FBB1F2617370769
:101A50004807AB07B0E809F0BB0B802DBF01FF279B
:101A600093585F4F3AF09E3F510578F00C94F40D77
:101A70000C943F0E5F3FE4F3983ED4F38695779540
:101A80006795B795F7959F5FC9F7880F911D969554
:101A9000879597F90895E1E0660F771F881FBB1FB0
:101AA000621773078407BA0720F0621B730B840B5D
:101AB000BA0BEE1F88F7E09508950E94640D6894B4
:101AC000B1110C943F0E08950E94240E88F09F5788
:101AD00098F0B92F9927B751B0F0E1F0660F771F52
:101AE000881F991F1AF0BA95C9F714C0B13091F048
:101AF0000E943E0EB1E008950C943E0E672F782FA1
:101B00008827B85F39F0B93FCCF38695779567950C
:101B1000B395D9F73EF490958095709561957F4F78
:101B20008F4F9F4F0895E89409C097FB3EF490951E
:101B30008095709561957F4F8F4F9F4F9923A9F0A6
:101B4000F92F96E9BB279395F69587957795679535
:101B5000B795F111F8CFFAF4BB0F11F460FF1BC079
:101B60006F5F7F4F8F4F9F4F16C0882311F096E90C
:101B700011C0772321F09EE8872F762F05C06623BA
:101B800071F096E8862F70E060E02AF09A95660F73
:101B9000771F881FDAF7880F9695879597F908952C
:101BA000990F0008550FAA0BE0E8FEEF161617066E
:101BB000E807F907C0F012161306E407F50798F0D6
:101BC000621B730B840B950B39F40A2661F0232BEF
:101BD000242B252B21F408950A2609F4A140A6956B
:101BE0008FEF811D811D089597F99F6780E870E050
:101BF00060E008959FEF80EC089500240A94161683
:101C0000170618060906089500240A9412161306EA
:101C1000140605060895092E0394000C11F4882378
:101C200052F0BB0F40F4BF2B11F460FF04C06F5F94
:101C30007F4F8F4F9F4F089557FD9058440F551F6A
:101C400059F05F3F71F04795880F97FB991F61F03E
:101C50009F3F79F087950895121613061406551FB5
:101C6000F2CF4695F1DF08C0161617061806991F21
:101C7000F1CF86957105610508940895E894BB2716
:101C800066277727CB0197F908950E94D00D08F4B5
:101C90008FEF08950E945D0E0C940B0E0E94FD0DB7
:101CA00038F00E94040E20F0952311F00C94F40DEE
:101CB0000C94FA0D11240C943F0E0E941C0E70F32C
:101CC000959FC1F3950F50E0551F629FF001729FE1
:101CD000BB27F00DB11D639FAA27F00DB11DAA1FF0
:101CE000649F6627B00DA11D661F829F2227B00D3D
:101CF000A11D621F739FB00DA11D621F839FA00DC8
:101D0000611D221F749F3327A00D611D231F849F17
:101D1000600D211D822F762F6A2F11249F5750406E
:101D20009AF0F1F088234AF0EE0FFF1FBB1F661FE9
:101D3000771F881F91505040A9F79E3F510580F0B2
:101D40000C94F40D0C943F0E5F3FE4F3983ED4F3F3
:101D5000869577956795B795F795E7959F5FC1F756
:101D6000FE2B880F911D9695879597F90895A1E20E
:101D70001A2EAA1BBB1BFD010DC0AA1FBB1FEE1F05
:101D8000FF1FA217B307E407F50720F0A21BB30B50
:101D9000E40BF50B661F771F881F991F1A9469F7CC
:101DA00060957095809590959B01AC01BD01CF0128
:101DB0000895EE0FFF1F0590F491E02D099481E046
:0C1DC00090E0F8940C94E40EF894FFCF2F
:101DCC008A028A020000000023018C00BB006A0119
:101DDC00EC00CA00DE000D0A00526F7A706F637A55
:101DEC00796E616D20696E69636A616C697A616391
:101DFC006A6500496E69636A616C697A756A652007
:101E0C0043414E004D43503235313520496E697493
:101E1C00204F4B202E2E2E004D4350323531352085
:101E2C00496E6974204661696C6564202E2E2E0003
:101E3C005A616B6F6E637A656E696520696E696352
:101E4C006A616C697A61636A690077797379EFBF4B
:101E5C00BD616E69652072616D656B206B6F6E7410
:101E6C00726F6C6E796368003D3D3D3D3D3D3D3D7F
:101E7C003D3D3D3D3D3D3D3D3D3D3D3D3D3D3D3D86
:101E8C003D3D3D3D3D3D3D3D3D3D3D3D3D3D3D3D76
:0C1E9C003D3D3D3D3D3D3D3D3D3D3D009B
:107E0000112484B714BE81FFF0D085E080938100F7
:107E100082E08093C00088E18093C10086E0809377
:107E2000C20080E18093C4008EE0C9D0259A86E02C
:107E300020E33CEF91E0309385002093840096BBD3
:107E4000B09BFECF1D9AA8958150A9F7CC24DD24C4
:107E500088248394B5E0AB2EA1E19A2EF3E0BF2EE7
:107E6000A2D0813461F49FD0082FAFD0023811F036
:107E7000013811F484E001C083E08DD089C08234E0
:107E800011F484E103C0853419F485E0A6D080C0E4
:107E9000853579F488D0E82EFF2485D0082F10E0AE
:107EA000102F00270E291F29000F111F8ED06801E7
:107EB0006FC0863521F484E090D080E0DECF843638
:107EC00009F040C070D06FD0082F6DD080E0C81688
:107ED00080E7D80618F4F601B7BEE895C0E0D1E017
:107EE00062D089930C17E1F7F0E0CF16F0E7DF06D8
:107EF00018F0F601B7BEE89568D007B600FCFDCFD4
:107F0000A601A0E0B1E02C9130E011968C91119780
:107F100090E0982F8827822B932B1296FA010C0160
:107F200087BEE89511244E5F5F4FF1E0A038BF0790
:107F300051F7F601A7BEE89507B600FCFDCF97BE46
:107F4000E89526C08437B1F42ED02DD0F82E2BD052
:107F50003CD0F601EF2C8F010F5F1F4F84911BD097
:107F6000EA94F801C1F70894C11CD11CFA94CF0C13
:107F7000D11C0EC0853739F428D08EE10CD085E9AC
:107F80000AD08FE07ACF813511F488E018D01DD067
:107F900080E101D065CF982F8091C00085FFFCCF94
:107FA0009093C60008958091C00087FFFCCF809118
:107FB000C00084FD01C0A8958091C6000895E0E648
:107FC000F0E098E1908380830895EDDF803219F02E
:107FD00088E0F5DFFFCF84E1DECF1F93182FE3DFCA
:107FE0001150E9F7F2DF1F91089580E0E8DFEE27F6
:047FF000FF270994CA
:027FFE00040479
:0400000300007E007B
:00000001FF